:020000040800F2
:10000000C03F0020DD23000839110108C923000882
:10001000C9230008C9230008C92300080000000004
:100020000000000000000000000000009D24000807
:10003000C9230008000000003D240008B1CB0008DF
:100040006926000869260008692600086926000854
:100050006926000869260008692600086926000844
:100060006926000869260008692600086926000834
:100070006926000869260008692600086926000824
:100080006926000869260008692600086926000814
:100090006926000869260008692600086926000804
:1000A00069260008692600086926000869260008F4
:1000B00069260008692600086926000869260008E4
:1000C00069260008692600086926000869260008D4
:1000D00069260008692600086926000869260008C4
:1000E00069260008692600086926000869260008B4
:1000F00069260008692600086926000869260008A4
:100100006926000869260008692600086926000893
:100110006926000869260008692600086926000883
:100120006926000869260008692600086926000873
:0C013000692600086926000869260008FE
:10013C0053B94AB9002908BF00281CBF4FF0FF3142
:10014C004FF0FF3000F00CB8ADF1080C6DE904CEA7
:10015C0000F018F8DDF804E0DDE9022304B0704784
:10016C00704700BF034611F8012B03F8012B002A3E
:10017C00F9D17047034613F8012B002AFBD1181A4A
:10018C00013870472DE9F04786468C460846089E94
:10019C00154674461946002B40F0C2808542B2FACF
:1001AC0082F245D94AB1C2F1200300FA02FC2EFAC0
:1001BC0003F3954043EA0C0C94404FEA154EA8B259
:1001CC00BCFBFEF8230C0EFB18CC08FB00F943EA31
:1001DC000C43994528D9EB1808F1FF3704D29945FF
:1001EC0002D9A8F102072B44A3EB0903A4B2B3FB79
:1001FC00FEFC0EFB1C330CFB00F044EA0344A04253
:10020C0014D92C190CF1FF3304D2A04202D9ACF151
:10021C0002032C44241A43EA07401EB1D4400023A5
:10022C0034607360BDE8F0874746DDE76346F1E76D
:10023C0092BB431B01214FEA154EAFB2B3FBFEFC40
:10024C00200C0EFB1C330CFB07F840EA03439845CB
:10025C0062D9EB180CF1FF3004D2984502D9ACF1FD
:10026C0002002B44A3EB0803A4B2B3FBFEFC0EFB71
:10027C001C330CFB07F744EA0344A7424ED92C1954
:10028C000CF1FF3304D2A74202D9ACF102032C4487
:10029C00E41B43EA0040C0E7C2F1200320FA03F15B
:1002AC00954090402EFA03F303434FEA154EAFB23C
:1002BC00B1FBFEFC0EFB1C10190C0CFB07F841EA01
:1002CC000041884504FA02F422D969180CF1FF3078
:1002DC0004D2884502D9ACF102002944A1EB0801F3
:1002EC009BB2B1FBFEFC0EFB1C110CFB07F743EAA7
:1002FC0001439F420ED9EB180CF1FF3104D29F42FF
:10030C0002D9ACF102012B44DB1B41EA004192E71C
:10031C006046E3E76146F7E76046A3E76346B7E765
:10032C00834206D916B9002108467BE7C6E900E0EE
:10033C00F9E7B3FA83F78FB9834201D3724508D832
:10034C00BEEB020460EB030301209C461EB90021A6
:10035C0068E73846FAE7C6E9004CF8E7C7F1200C25
:10036C00BB4022FA0CF41C432EFA0CF120FA0CF3CD
:10037C00B84001434FEA14490EFA07F5B3FBF9F8FC
:10038C001FFA84FE09FB18300B0C08FB0EFA43EA2B
:10039C0000439A4502FA07F240D9E31808F1FF30FE
:1003AC0004D29A4502D9A8F102002344A3EB0A0314
:1003BC0089B2B3FBF9F809FB183308FB0EFE41EACE
:1003CC0003418E452CD9611808F1FF3304D28E45B8
:1003DC0002D9A8F10203214443EA0040A0FB029891
:1003EC00A1EB0E014145CE46434602D306D14D4505
:1003FC0004D2B9EB020E68EB04030138002EA6D030
:10040C00B5EB0E0261EB030101FA0CFC22FA07F3C7
:10041C004CEA0303F940C6E9003198E74046C5E7CA
:10042C004346D9E770B588B01A4A1B48032110F02F
:10043C0044FD002004F0BAF9044640B1174A0346C3
:10044C001548012110F042FD204608B070BD144E35
:10045C00144A1148032110F030FD0FCE03AD0FC527
:10046C0033682B60104900942346022203A805F040
:10047C0067F8044610B10D4A0346E1E70C4A0648FA
:10048C00032110F01AFD00214FF4FA5013F098F8E4
:10049C00F9E700BF504F01088C3E0108764F010868
:1004AC00743F0108954F0108EC3F0108AB4F010860
:1004BC00D04F01082DE9F04F91B08407009302F062
:1004CC0004030293C2F3C20303F10103DDF8688055
:1004DC00039205460E46059340F0BA81041D30B1D7
:1004EC00072909D86FF01B0011B0BDE8F08F01F09F
:1004FC0007063444C6F10806009B4FF00009591E4C
:10050C004FF0040A4FF0FF330193CDF810904F4693
:10051C00CB4653460DB1009A22600598002800F393
:10052C00E8809848009A824203D397488242C0F0F0
:10053C00E080039AA4EB050E92074FEA9E0000F1AF
:10054C0003810F2F00F2B180002D00F0058107F11F
:10055C0040020DEB020C019A0CF8200C0CF8102C3C
:10056C00049801300490E7E07A285DD84B280ED827
:10057C00472859D829282DD8252852D054D8202896
:10058C007AD02338D0F1000B4BEB000B74E04C38D5
:10059C002E2849D8DFE800F07048484848484848B9
:1005AC00484848484B484848484848484859484BA8
:1005BC004B595959704B6D487048184B1848488224
:1005CC007F4B48484B487F0000204FF0000B4FF00A
:1005DC00040A38E02A38C0B2012202FA00F010EA0C
:1005EC000E0F49D110F0625C2FD110EA020B43D0F0
:1005FC006046013C5444B4FBFAF40AFB04F4002DAD
:10060C0061D0A3EB050CA444B4453FF66BAF0028B6
:10061C0068D1042B47D158F8043B236004340423DD
:10062C002AE0019A013A01924FF0000B24E011F8F4
:10063C00010C6C2834D111F8023C00206C2B834641
:10064C00C5D14FF0080A5346D3E708F1070828F044
:10065C0007080734F8E802AB24F0070435B1069814
:10066C002044B0423FF63EAFC4E900AB08344FF033
:10067C00000B4FF0080A534611F8010F002878D0F0
:10068C00BBF1000F7FF470AF2528F5D1019B01332E
:10069C0001934FF0010B4FF0040AECE7584694E736
:1006AC0000208346A5E7082B02D06FF015001BE74E
:1006BC0008F1070828F00708F8E80223C4E900232A
:1006CC0008340823D8E768B9042B02D108F10408D0
:1006DC00A4E7082BE9D108F1070828F0070808F16E
:1006EC000808EDE7059A013A059258F8042B009298
:1006FC0010E7039A900720D5A4EB050E4FEA9E0055
:10070C004FF0010CBEF5007FCFD20F2FCDD8F5B135
:10071C0007F140020DEB020EC0B2019A0EF8200C4C
:10072C000EF8102CBCF1000F3FF41AAF60F07F00F4
:10073C000EF8200C09F101090137C5F10802043447
:10074C0006924FF6DA7E97E74FF0000CDAE7BCF131
:10075C00000F01D00136EFE7029802360028EBD1EA
:10076C000098CDE90631FFF705FDDDE906310644B9
:10077C00E2E7631BB3F5806F97D23DB9A6F108048D
:10078C00E018B1E6BC390108288C0108029A2860EF
:10079C009B082B709DF81030C2B1EB7085F802905D
:1007AC00B9F1000F05D008A80022C5F1010C974241
:1007BC000ED1C5F101030DF120084FF0000A019391
:1007CC000DF1300B574512D1601B8DE66B70E5E7D0
:1007DC0010F8013B190608D50CEB040EB64503F0D6
:1007EC007F033FF67FAE04F8013B0132DFE7B9F13E
:1007FC00000F03D098F90020002A17DB029BD3B11D
:10080C001AF80B2004F8012B0022019B1819104434
:10081C00B0423FF667AE98F8000004F8010B00995F
:10082C000392204613F028F8039A14440AF1010AA3
:10083C0008F10108C6E798F8002055F8223000931B
:10084C00029B45F822300098FFF794FC421CDCE731
:10085C006FF00D0048E600BF2DE9F04F97B000AFE8
:10086C0090F802A0D7F880B03B62CBF3C0030446EB
:10087C00FA62BB61894641B9457800780AEB800081
:10088C0020444D4517D8A0EB0409E378FB61BAF17D
:10089C00000F02D01BF0010F16D1FB6953BBFB6A92
:1008AC001BB13A6A4946204698474D4628465C3764
:1008BC00BD46BDE8F08F461C3046FFF75BFC0130AF
:1008CC00304409F10109DCE7237862687A62FA6A3C
:1008DC009900796104EB8301002A40F000814D46B8
:1008EC000E4601EB0A094FF000084E454CD101EBC6
:1008FC000A0610E01BF0020FD1D023789A007A611F
:10090C0062687A62FA6A04EB8301002A77D14D4659
:10091C0001EB0A0690461BF0050F0CBF02230123C6
:10092C00FB62FB6906EB430A0BF00203BB62564504
:10093C00BCD016F8021B16F8013C54F82390994BC6
:10094C00994502D3984B994536D3BB69002B40D0BF
:10095C00786A0FF054FF00283BD0E9468AB06A460B
:10096C00924B53617B6AC2E906314FF400731384D6
:10097C008F4B42F8103F8F4800234FF4125100F078
:10098C0091FC023DCD46D2E716F8013BF96254F8D2
:10099C002300FFF7EFFBD7F88430F96A01304BB135
:1009AC00D7F8883098453EBFD7F8843023F8180024
:1009BC0008F10108054498E7BB6923B1786A0FF088
:1009CC001EFF0028C9D11BF0010F05D1FB6AED1ADF
:1009DC00ADE7BB6A002BAAD04846FFF7CBFBD7F894
:1009EC00843053B1D7F8883098453FBFD7F884206E
:1009FC00431C22F8183008F10108054497E7BAF1B6
:100A0C00000F72D01BF0040672D0D046002607F1FE
:100A1C00480052463B61B96212F02EFFB96A3B693D
:100A2C0001EB0A02BA62FA69F9695200FA60BA6A11
:100A3C0002EB41023A610BF00202BA603A69B96A00
:100A4C008A4257D162787A621BF0020F32440CBF93
:100A5C004FEA580100211BF0010FD2B240F09F80E9
:100A6C001BF0040F14BF40460020BB616270A070E5
:100A7C00E1703A6A7969FB6A20469847051EFFF6D1
:100A8C0015AFBB6923707B6A6370FB69E3704146E9
:100A9C003A6AFB6A84F802A007F148009847B0F163
:100AAC000008C0F2BB807B693A6AA9EB0A01C91A3B
:100ABC00FB68C91AD7E90A0398470028C0F2B0802E
:100ACC00A84408EB00054FF0000B07F1380AB345BA
:100ADC0072D300213A6AFB6A08469847E6E6564606
:100AEC004FF0000807F1380093E75646D04697E7D9
:100AFC00B04695E7BA6A12F8021BBA6212F8015CAA
:100B0C00284A54F82500904202D3274A90421ED31B
:100B1C00BA6932B1786A7B600FF071FE7B6800288D
:100B2C008CD1BA6802BB08F1280207F1300C08F12D
:100B3C000100944407F1580252FA80F008F10208BF
:100B4C000CF8101C5FFA88F800F8105C76E7BA69AC
:100B5C003AB1786A7B600FF052FE7B6800287FF414
:100B6C006DAF1BF0010F09D006F1280207F1300020
:100B7C00711C161806F8205CCEB25FE71BF0040F50
:100B8C003FF45CAF08F1280207F1300008F10101D5
:100B9C0002EB000808F8105C5FFA81F84EE70020C1
:100BAC0063E700BFBC390108288C01080650010816
:100BBC0004000001EC3E01081BF80A3087F83730BE
:100BCC0054F82390D7F884302BB3D7F888309B4552
:100BDC0021D2D7F8843033F81B803A6AFB6A0121A2
:100BEC0007F13700984700281ADB0544B8F1000FCD
:100BFC0006D14846FFF7BEFA00F101081FFA88F843
:100C0C003A6AFB6A414648469847002808DB054487
:100C1C000BF1010B5BE74FF00008DEE7454645E6BC
:100C2C00054643E6014B1860704700BF7001002079
:100C3C0080B505460E46174698460EF0C7FD03468E
:100C4C0012F0ACFEDFF81890044649F8003042462A
:100C5C0030463946A84754F8090001F0D3FB00BFD1
:100C6C0008000000034A536823F00203536000207D
:100C7C00704700BF002004E0EFF31180102383F3D2
:100C8C001288BFF36F8F094B1A683AB9084A11687A
:100C9C0041F4807111601168C905FCD51A680132E4
:100CAC001A6080F31188BFF36F8F7047DC1000203F
:100CBC000004005810B5EFF31184102383F312884D
:100CCC00BFF36F8F134B1A68C2B9BFF35B8F124B14
:100CDC00012253E8001F002903D143E8002000281B
:100CEC00F7D1BFF35B8F04D10C4A0D48022110F0F1
:100CFC00E4F884F31188BFF36F8F10BD012A01BF94
:100D0C0008490A6822F480720A601A68013A1A606B
:100D1C00EFE700BFDC100020D8100020C550010800
:100D2C004C3F0108000400580C4B1A6842F4007246
:100D3C001A601A6842F480621A601A6842F480726F
:100D4C001A60074B074A1A60074AD2F8803023F022
:100D5C00070343F00403C2F880307047004000588A
:100D6C000C03002000093D00000400582DE9F04759
:100D7C00DFF85880044607464FF0010914B938468D
:100D8C00BDE8F08794FAA4F5B5FA85F509FA05F3F0
:100D9C002E0108EB05156FEA030A24EA03042B7BEA
:100DAC00002BEBD058F806301B694BB94644042293
:100DBC0073682846196807EA0A0710F00EF8DDE791
:100DCC00284698470028D9D1F0E700BF643F0108B6
:100DDC0030B51049104889B0002212F0BCFC0F4D00
:100DEC000F4900220023CDE9062300240E23CDE970
:100DFC000334CDE901440B4B00944FF44072284668
:100E0C000EF034FA0849284612F028FB204609B0A7
:100E1C0030BD00BF390E0008700A0020E805002024
:100E2C00C0190020551100080651010801480DF0A9
:100E3C0055BF00BF500400202DE9F04780462048E4
:100E4C000F460FF0A3FF0646002832D00025284697
:100E5C00BDE8F087237B83B12368DB680BB12046A8
:100E6C009847636883F8069023681B69CBB963685D
:100E7C000422196820460FF0B0FF01361034544597
:100E8C00E8D3B8F1000FE2D0002DDFD02846FFF7F1
:100E9C006DFF0546002FF7D00021502012F090FB7B
:100EAC00F2E7204698470028E1D009FA06F31D43E3
:100EBC00E3E7044CDFF810A005464FF00109DEE72C
:100ECC00F0100020643F0108743F0108014B53F8F7
:100EDC00200070471040010808B5034608462BB1A6
:100EEC00044A136000F074FC002008BD6FF015007C
:100EFC00FBE700BF7401002010B5044C237813B934
:100F0C0003480DF0EBFE0123237010BDC418002024
:100F1C005004002010B504460B480FF037FF5CB1AD
:100F2C00BFF35B8F094B53E8001F013943E80012F4
:100F3C00002AF8D1BFF35B8F054812F018FC054866
:100F4C00BDE810400DF0CABEE8100020EC100020E7
:100F5C00700A0020500400200020064BBFF35B8F6A
:100F6C00014653E8000F43E80012002AF9D1BFF301
:100F7C005B8F7047E810002070B5FFF7EDFF084C51
:100F8C00084E0546B44200D370BD63685B792BB143
:100F9C0023685B6813B12946204698471034F1E763
:100FAC00643F0108743F010810B5044C0449204605
:100FBC000FF06BFD034B1C6010BD00BF58030020ED
:100FCC00FC3F0108E01000200D4A0E48002310B52C
:100FDC0013700D4A13600D4A4FF47A711360FFF7CA
:100FEC007BFFFFF7E1FF0A4B0A4918468B4200D3FF
:100FFC0010BD1A1A5C681211013222711033F5E718
:10100C00C5180020B30D0108E8100020EC100020DA
:10101C00643F0108743F0108014600220148002387
:10102C000FF054BD5803002001480FF0EDBD00BF78
:10103C0058030020024B014618680FF040BE00BF59
:10104C00E010002001480FF075BE00BF58030020CF
:10105C0070B5264B1878002847D0FFF7E5FF0546FA
:10106C0000283FD1224B234C1B68002B13DD12F0C0
:10107C002AFBD4E90032C00840EA4170C01A4FEA9A
:10108C00D10140F2E93361EB0201984271F10001A8
:10109C0001D3FFF771FFD4E9003213F57A7342F1F3
:1010AC000002C4E90032BDE87040FFF7CBBF6368B3
:1010BC005B7923B1236829461B6820469847103476
:1010CC00B442F4D32846FFF7B5FFBFF35B8F0A4B4E
:1010DC0053E8001F013943E80012002AF8D1BFF38E
:1010EC005B8FBFE7054C064EEAE770BDC4180020C5
:1010FC00E8100020680A0020EC100020643F010872
:10110C00743F010870B50D4D297861B90120FFF7C6
:10111C0093FE0B4C0B4EB44206D3FFF799FF0028FD
:10112C00FBD101232B7070BD63685B791BB1236805
:10113C0020469B6898471034EDE700BFC518002087
:10114C00643F0108743F010800212DE9F04708466F
:10115C00FFF772FE044658B34FF4C8784FF00009FD
:10116C0012F01CFC1B4B1C4A1B58136033B11B4B5D
:10117C001B68092B02DD1A480DF0B0FD194FDFF882
:10118C0060A0002544B12046FFF7F0FD044618B9D5
:10119C004FF0FF384FF0FF39FFF75AFF064628B9DA
:1011AC00B5B942464B4650460DF0D2FD3546E9E7FF
:1011BC004FF0FF384FF0FF39D2E72B689B691BB11A
:1011CC0000221146284698471035BD42F5D3E8E772
:1011DC00054DFAE708000000E4100020EC10002098
:1011EC0050040020743F0108643F010813B51848EF
:1011FC000FF0CCFD174B1B7873B1EFF31184102358
:10120C0083F31288BFF36F8FFFF722FF84F31188EB
:10121C00BFF36F8F02B010BD0F4B1B68002BF9D0C2
:10122C0050B900220023CDE900230C484FF4FA52A8
:10123C0000230EF0BFFDEDE70928EBD1074812F0B3
:10124C0096FA074802B0BDE810400DF047BD00BF4C
:10125C00EC100020C5180020E4100020700A0020BB
:10126C005004002010B5064B1B68044698472146D5
:10127C00A06004480FF0A9FCBDE81040FFF7B6BF12
:10128C007401002058030020044A054B9B1AB1EB53
:10129C00D30F34BF52F83100002070478C3E010848
:1012AC00643F01082DE9F04F8FB004AFC1F34A2819
:1012BC00B8600D4691467B600C0DB8F1000F63D001
:1012CC00002607F114034FF0040B4FF00A0AC7F87D
:1012DC000C80C7E907667E620193CDF808B0CDF8A3
:1012EC0000A007F11C03F96832464846FFF7B4FA30
:1012FC00B0F5006F03461CD36C468AB0D9F80410C5
:10130C0004AB2648C3E9050140F2FF71D9611A46C6
:10131C004FF400711984224B42F8103F2148334698
:10132C004FF41251FFF7BEFFA5462C37BD46BDE862
:10133C00F08FC0F30A0804F11700184420F00700DE
:10134C0080083B60FFF768FE68F35325044690B1B4
:10135C003B68154AC7E9083600F1100107F1140380
:10136C00F961CDE900A3CDF808B0F96807F11C03C9
:10137C004846FFF771FA68F353257B68B9682A462B
:10138C0020460FF04AFDD0E704F1170020F00700CB
:10139C008008FFF741FE0446EDE700BF1B51010832
:1013AC0004000001043F0108F90D01082DE9F04F7C
:1013BC0087B0DDE91279DDE9105A044603919346B2
:1013CC009846BFB1CDF800903B4652461021002004
:1013DC00CDF81490FFF76EF8B0F5006F06460AD3FF
:1013EC00184A194840F2FF73022107B0BDE8F04FCC
:1013FC000FF06CBD3E4605F11700304420F007009D
:10140C0004F007048008FFF707FE0BF0070BE4005D
:10141C0044EA8B1444EA462444EA0554054640B198
:10142C003FB1CDF800903B46524631461030FFF7A5
:10143C0041F8039943462246284607B0BDE8F04FD1
:10144C000FF0EBBC5A510108043F0108406820B171
:10145C00034BC01A40F3CF0070474FF0FF3070477A
:10146C008C3E01080EB403B503AB014653F8042BB4
:10147C000448019301F078FA02B05DF804EB03B074
:10148C00704700BF3B0F0108CA0605D48B064CBF42
:10149C0002490349FFF7E6BF704700BF93510108AB
:1014AC00925101082DE9F04F89B09B46149B06938D
:1014BC009DF84CA0159B0593169B179E0493044610
:1014CC000D469046BAF1000F00F09D8006F4807333
:1014DC0007930FF080FC06F00209024600283ED06C
:1014EC0091492046FFF7BEFF0746B9F1000F08D01F
:1014FC0016F0440F35D18D492A462046FFF7B2FF2E
:10150C00074406F0010353B1894B8A4953F82A204A
:10151C00894B2046002A08BF1A46FFF7A3FF06F4A2
:10152C008073002B49D006F00803002B63D1B8F16F
:10153C00000F66D0814942462046FFF793FF0546CF
:10154C00069B3D44002B6DD1049B002B73D1F307FC
:10155C0000F1E48031462046FFF796FFD8E00746BD
:10156C00C3E7774B18680028CAD0764B4FF47A79CA
:10157C001B68B5FBF3F54FF46163B5FBF0F100FBB1
:10158C00115509FB05F54FF03C0CB1FBF3F203FBD5
:10159C001211B5FBF0FEB1FBFCF300FB1E550CFB6E
:1015AC00131109FB05F50091B5FBF0F56649CDE982
:1015BC0001E52046FFF756FFA2E706F00803EBB162
:1015CC00624B634953F82A202046FFF74BFF054630
:1015DC00B8F1000F05D0594942462046FFF742FFAB
:1015EC000544BBF1000FABD05A495A462046FFF7D1
:1015FC0039FF0544A4E74FF0000BE1E706F00805BE
:10160C00E6E745469CE7BBF1010F069B06D1002B94
:10161C0064D1049B002B7BD000250CE0002BF8D070
:10162C004D485CE04D48069B4D4922460FF0B6F8FC
:10163C00049B002B68D0DFF82C81DFF82C91049FE1
:10164C003146102F204628BF1027FFF71DFF4FF003
:10165C00000B5D4545DC059B49461A782046FFF793
:10166C0001FF4FF0010B1BF0070F03D14146204641
:10167C00FFF7F8FE5F453BD9059B494613F80B2055
:10168C002046FFF7EFFE0BF1010BBBF1100FEAD177
:10169C00364920464FF0000BFFF7E4FE5A46059BF7
:1016AC009A5CA2F120015F2928BF2E2230492046E6
:1016BC00FFF7D8FE0BF1010BBBF1100F1DD01BF087
:1016CC00070F03D141462046FFF7CCFE5F455A4633
:1016DC00E5D841462046FFF7C5FEEBE71F485546C7
:1016EC00A1E741462046FFF7BDFE0BF1010BB0E729
:1016FC0020492046FFF7B6FEC5E7059B3B44059302
:10170C00049BDB1B04939AD1BAF1000F7FF41FAF3B
:10171C00204609B0BDE8F04F0FF0FCBB064A054966
:10172C002046FFF79FFE15E79A5101089E510108CC
:10173C0020400108055E010895510108C3510108BC
:10174C00F8100020F4100020A751010834400108C3
:10175C00C7510108CD510108710F01083B0F010859
:10176C0075290008DA510108D2510108DC51010831
:10177C00DE510108D851010873B542F20F738B4248
:10178C0028BF0B4605680F4A0446052168460EF033
:10179C00A5FB63680C495B6806460B2228460FF0D4
:1017AC00ABFB63683246694628465B680FF0A4FBC6
:1017BC00636806495B681B2228460FF09DFB02B04C
:1017CC0070BD00BF44580108FD510108E1510108EA
:1017DC00074A00210123904206D8064A01B9012389
:1017EC001360054B1860704740085B000121F2E75D
:1017FC0040420F00F4100020F8100020F8B5074FFD
:10180C000D4604464618B44201D12846F8BD14F8DA
:10181C00011BBB6801485B689847F4E7B83B0108BB
:10182C00014B0360002070477C4001084FF0B0432F
:10183C0082B0D3F8502142F48012C3F85021D3F86F
:10184C00503103F480130193019B0A4B1A6A42F442
:10185C0000721A62D3F8D42042F40072C3F8D42078
:10186C0040BF20BF044AD36843F40043D36002B0A6
:10187C00704700BF000800580004005807B54FF02F
:10188C00B0432C201A6D42F480121A651B6D03F4C0
:10189C0080130193019B084B1A6842F001021A60F5
:1018AC001A6842F480321A600BF082FA2D2003B0D1
:1018BC005DF804EB0BF07CBA000C0058024A53683C
:1018CC0023F0010353607047000C0058024B4FF497
:1018DC0080329A60704700BF000C0058044B4FF4E4
:1018EC0000129A605A6822F400125A60704700BFC6
:1018FC00000C0058024A536823F0020353607047EF
:10190C00000C0058044B4FF400329A605A6822F4D1
:10191C0000325A60704700BF000C005810B5164CCE
:10192C00E368990709D463689A0306D4636843F49F
:10193C000033636000F0F4F910BDE3681B070DD4AD
:10194C00636818030AD4636843F4002363600B4B89
:10195C001B6898474FF40023A360EDE7064BDA6849
:10196C009106E9D45A689202E6D45A6842F40012FD
:10197C005A6000F0A3F9DFE7000C00582811002092
:10198C0010B5084CE3681B0706D5074B1860636855
:10199C0023F40023636010BD80474FF40023A36041
:1019AC00F9E700BF000C00582811002010B5104CAE
:1019BC00E3699A0707D563689B0704D400F0BCF968
:1019CC000223A36010BDE369D80706D56368D90765
:1019DC0003D400F04FF90123F3E7054CE3691A0730
:1019EC00F0D563681B07EDD400F0EAF90823E8E7AB
:1019FC00000C005810B5054C014620460FF067FB53
:101A0C002046BDE8104010F0CFBB00BFCA18002024
:101A1C00034B01201870034B1B6803B11847704728
:101A2C00C91800202C11002030B5104D104B4A68FD
:101A3C00E8610C4685B028461A6000F099F80D4B09
:101A4C0024680D481C600FF029FBFFF7E1FF0B4BDE
:101A5C0001221A702B6833B1094A0192094A039486
:101A6C00029201A8984705B030BD00BF301100208C
:101A7C002C11002050110020CA180020C81800207A
:101A8C009F100108011A00081FB517480FF009FB39
:101A9C00B8B9164C2378A3B1134801A90FF02FFB4A
:101AAC00134BDA690123C2B101998DF80830039107
:101ABC0002A890479DF80830237083B1019800F07C
:101ACC0071F909480FF0EDFA28B9084B1B7813B1DE
:101ADC00054810F069FB04B010BD2370EEE70199C6
:101AEC0001480FF0E8FAECE7CA180020C8180020EB
:101AFC00301100202DE9F8431D46184B1B68074692
:101B0C000C4616460BB100209847DFF85480154B55
:101B1C00D8F800004FF00009A0F80970C4722246F2
:101B2C0031460C3083F8009011F0A6FE0E4B0122CA
:101B3C001A700E4B49461B694846984748F2E80014
:101B4C0009F0E6FED8F800108A7805F10800033297
:101B5C0011F092FEBDE8F843FFF75ABF2C1100209C
:101B6C0050110020C9180020C71800203011002087
:101B7C00024B0360024B0361704700BFD51C000889
:101B8C00111D000837B5094C094D08480FF089FAAA
:101B9C0008B103B030BD01A920460FF0B0FA2B6993
:101BAC00019918690FF093FAEFE700BFD2180020E3
:101BBC00000003200B4B0C4A1A600C4A5A600C4A6A
:101BCC009A600C4A1A620C4A5A620C4ADA600C4A45
:101BDC001A610C4A5A610C4A9A610C4ADA61FFF795
:101BEC004DBE00BF00000320B8000320A800032056
:101BFC00980003209000032088000320800003201D
:101C0C0064000320600003205400032048000320DC
:101C1C0038B50C4D044628460FF040FA0A4BA26822
:101C2C005B681A60E268DA60084AC3E90125FFF7CD
:101C3C0045FE074B22681A60064B62681A6000204A
:101C4C0038BD00BF3000032000000320E401032056
:101C5C00601100205C11002008B5054B5A685B68C8
:101C6C00126801211172FFF731FE002008BD00BF80
:101C7C000000032037B5084C084D07480FF011FA47
:101C8C0008B103B030BD204601A90FF038FA2B681B
:101C9C0001989847F1E700BF300003206011002045
:101CAC0008B5054B5A685B68D26802211172FFF7C0
:101CBC0015FE002008BD00BF00000320014B1B686F
:101CCC00184700BF5C11002038B50A4D0446284661
:101CDC000FF0E4F9084BA268DB68C3E90025FFF7B5
:101CEC0009FE064B22681A60054B62681A600020D8
:101CFC0038BD00BF2800032000000320581100202D
:101D0C005411002008B5054BDA68DB681268102105
:101D1C001172FFF7F7FD002008BD00BF0000032083
:101D2C00034BDA68DA68034B10681B68184700BF6E
:101D3C00000003205811002037B5084C084D074807
:101D4C000FF0AFF908B103B030BD204601A90FF078
:101D5C00D6F92B6801989847F1E700BF28000320BB
:101D6C005411002038B50C4D044628460FF096F956
:101D7C000A480FF093F90A4BA2681B699A60E26853
:101D8C00C3E9032522681A6062685A6022695A61A5
:101D9C0062699A6138BD00BF40000320D218002050
:101DAC000000032008B5014603480FF090F9BDE888
:101DBC0008400248FFF7E4BDD2180020911B000830
:101DCC0013B5074C06480FF06CF908B102B010BD02
:101DDC00204601A90FF093F901980FF09EF9F1E755
:101DEC003800032008B50348034A0021121A0FF0EB
:101DFC0095F908BDE8050020BC1900200748084AE1
:101E0C00084908B5121A0FF08BF90748074A084918
:101E1C00BDE80840121A0FF083B900BF0000002083
:101E2C00E4050020288C01080000002000000020A0
:101E3C00288C01082DE9F047064600AF0C46002916
:101E4C0036D0E9468AB0D1E90012A3686D46214824
:101E5C00A8464FF0050AC5E90501C5E9072348F86E
:101E6C0010AF1D48424600234FF42151FFF71AFAD8
:101E7C00CD46D4E903126369AD461848C5F810A0E5
:101E8C00C5E90501C5E907231348002342464FF471
:101E9C002151FFF707FACD46E369114A0E4801219B
:101EAC000FF014F8A3690F4A0B4801210FF00EF83C
:101EBC00012E07D1EFF305830B4A0748103B31463F
:101ECC000FF004F8214630460CF030FCBD46BDE85E
:101EDC00F08700BF43520108343F010872520108D9
:101EEC00A1520108B0520108DE52010830BFFFF7C1
:101EFC00FDBF00BF2DE9F0410B4EDFF8308006EB43
:101F0C000807CC1B054632460949204611F0B4FCA3
:101F1C00A01942460021083C11F0BCFC6C6707F18B
:101F2C000800BDE8F08100BF0000000008000000C0
:101F3C00743F0108054B5A699B689A421FBF044ABB
:101F4C00536843F080535360704700BF7C180020E7
:101F5C0000ED00E070B5294C06460D46284829498D
:101F6C000FF0EBF8A36AD9043CD5254826490FF0AD
:101F7C00E4F81720A36A1A0504D5214823490FF069
:101F8C00DCF818201D4CA36A9B0512D51C4820496F
:101F9C000FF0D3F8A36BA26A100409D51D4A184898
:101FAC0001210EF093FF1EB1A36A23F40043A36238
:101FBC001920124CA36A590504D5114816490FF083
:101FCC00BCF81A20A36ADA050ED50D4813490FF098
:101FDC00B4F81B20094A936A43F47F4393620023AD
:101FEC002B7070BD1620C5E7A36A9B04F2D504487C
:101FFC000B490FF0A2F81C20ECE700BF00ED00E04D
:10200C00343F0108F1520108075301081853010825
:10201C002B53010844530108595301087453010808
:10202C008C53010810B5204C204921480FF085F83D
:10203C00A36A990136D51E481E490FF07EF81E2062
:10204C00A36ADA0104D51A481B490FF076F81F2051
:10205C00154CA36A1B0304D5154818490FF06DF8ED
:10206C002120A36A590304D5114815490FF065F8CE
:10207C0022200D4CA36A9A0304D50D4811490FF088
:10208C005CF82320A36ADB0304D509480E490FF042
:10209C0054F82420044A936A6FEA03436FEA13430B
:1020AC00936210BD1D20CBE700ED00E0BB5301088F
:1020BC00343F0108D3530108E653010800540108CA
:1020CC001E540108435401085D5401082DE9F843DE
:1020DC00364D804689463648364917460FF02DF85E
:1020EC00AB6ADE0627D5344931480FF026F81124A7
:1020FC00AB6A1D0704D531492D480FF01EF8122488
:10210C002A4DAB6A980718D52D4929480FF015F8B8
:10211C006E6BAB6A190646D52A4A2548334601210F
:10212C000EF0D4FEB9F1000F03D0AB6A23F080039C
:10213C00AB62132403E01024DAE76FF015061B4D95
:10214C00AB6ADA0704D5204919480EF0F6FF1424BF
:10215C00AB6A9B0604D51D4915480EF0EEFF1524FD
:10216C00124B9A6AD50602D49A6A90070AD55B6814
:10217C00190507D54146304600F02AFA10B180F314
:10218C0009880224094B9A6A920642BF5A6A22F4C1
:10219C0000525A629A6A42F0FF029A6200233B7024
:1021AC002046BDE8F8836FF01506C2E700ED00E0AD
:1021BC00343F0108885401089E5401081853010843
:1021CC00D1540108E9540108FF5401088C5301084B
:1021DC002DE9F041664B8AB0D3F8048000AF044679
:1021EC00C8F30805002686F31188BFF36F8F02F041
:1021FC007F43B3F17F4F07D102F00C03082B12D1B0
:10220C005C495D480EF099FF002634460023FB71B3
:10221C00EB1E092B00F28A80DFE803F00A80837C36
:10222C0088888888888610074CBF0C460126EDE705
:10223C00524951484E4D0EF080FF0023FB71EB6A62
:10224C009A0705D54E494C480EF077FF002332E033
:10225C00EB6A002B01DA4B49F5E7EB6A5B00F5D52D
:10226C00494945480EF069FF6B69A26943F48073D4
:10227C006B61BFF34F8FBFF36F8F6B6932F8022C1A
:10228C0023F480736B61BFF34F8FBFF36F8F4DF6E9
:10229C0002739A4208D0AB6ADBB273B3FA1D012108
:1022AC002046FFF713FF37E02368384A32480121F4
:1022BC000EF00CFE2368FA79DAB907F1080504F17F
:1022CC00200C206861682A4603C208346445154610
:1022DC00F7D17A6A002E45D0C2F3080121B96FEA12
:1022EC0052226FEA42227A6207F108011846FFF780
:1022FC00A1FD2837BD46BDE8F081AB6A13F47F4FD2
:10230C0004D0F91D0120FFF725FE05E0AB6AB3F5FB
:10231C00803F9BD3FFF786FE0346CCE7FA1D0021D6
:10232C00BEE7F91D0020EEE719498CE7194A1A4B54
:10233C0018F4F87FE8468AB018BF13466A46174966
:10234C00C2E905134FF400731384103D144BD5618F
:10235C0042F8103F084800234FF41151FEF7A2FF3A
:10236C00C54673E722F4FF7222F00102BBE700BFFF
:10237C0000ED00E04C550108343F01087755010889
:10238C008E550108AF550108BD550108DC550108F3
:10239C00F8550108335501081E5501081C56010853
:1023AC0004000001044B5A6942F010025A615A6948
:1023BC0022F008025A61704700ED00E0EFF308804C
:1023CC00EFF3098101B57246FFF702FF01BD00BFB3
:1023DC000A4880F30888102080F3118808484FF4CD
:1023EC000461401880F30988EFF31480022108433C
:1023FC0080F31488BFF36F8F00F0B2F8C03F002059
:10240C00002E0020084B9B6883420BD1EFF3058311
:10241C0043B1064B5A6842F080525A605A6A22F411
:10242C0000425A620DF0D8B97C18002000ED00E093
:10243C0014498A684FF030001044EFF3098C80E89F
:10244C00F01F102080F31288BFF36F8F0E4F4FF0E8
:10245C0000664A698A603E60506F0C4C2060906F39
:10246C000023936780F3118804B5104600F014F92B
:10247C00BDE8044002F1300090E8F01F8CF30988AD
:10248C00704700007C18002004ED00E0641100206F
:10249C001EF0040F0CBFEFF30880EFF30980816985
:1024AC0011F8021C0229FFD001B572460EF03AFE5B
:1024BC0001BD00BF40B2002807DB044A41090123DB
:1024CC0000F01F00834042F82130704700E100E02B
:1024DC0040B200280CDB4309064900F01F002033F2
:1024EC000122824041F82320BFF34F8FBFF36F8F3F
:1024FC00704700BF00E100E0054B420900F01F00EF
:10250C0053F82220012303FA00F01040704700BF5B
:10251C0000E100E040B20028A8BF00F1604001F1EA
:10252C000101B8BF064B4FEA0111ACBF00F5614089
:10253C0000F00F00C9B2B4BF195480F800137047F3
:10254C0014ED00E0044B054A23F07F039360BFF3C6
:10255C004F8FBFF36F8F70470000000800ED00E055
:10256C0008B5FFF7EFFF0B4AD2F8883023F470035D
:10257C00C2F88830EFF3148323F0040383F3148838
:10258C00BFF36F8FFFF72EFCFFF738FC00F05AF803
:10259C000CF0F0F900ED00E042F8203C009B42F812
:1025AC001C3C0A49019B42F8183C029B42F8143C23
:1025BC0021F001014FF0807342F8043C42F8081CF2
:1025CC000023203A02658367704700BF3D0C00086A
:1025DC00094A0346906870B113F1160F406E05D08E
:1025EC00A0F140029A4205D8834203D2814228BF0F
:1025FC0000207047002070477C18002008B5154655
:10260C000B4A0C4B9060426F1A600E4600F044F877
:10261C002C4686F309880020034B9847204600215E
:10262C0000220023014C20475D1101083D0C0008DD
:10263C007C18002064110020014B10221A61704795
:10264C0000ED00E0044800231021C21801333F2B99
:10265C0082F80013F9D1704700E100E008B5EFF300
:10266C000583064A103B02EBC30152F8330049685C
:10267C008847BDE80840FFF75DBC00BFF03B010890
:10268C00024B034A0348012100F08AB800000320E2
:10269C00000000207C400108426E054B403A1A6055
:1026AC00044A4021C3E901121846012100F082B806
:1026BC006811002000000B1508B503461048D0F82F
:1026CC009020C2F30722013A934207D90D480E4AD3
:1026DC0001210EF0FBFB6FF0150008BDC0F898301F
:1026EC000A6822F01F021A4342F01002C0F89C2024
:1026FC008A6842F00102C0F8A0201846EDE700BF3E
:10270C0000ED00E01C3F010833560108F0B50E4601
:10271C0085B01F4604460025B5420DDA606810B33B
:10272C0097B1431E18420AD0104A11482B4601217A
:10273C000EF0CCFB6FF01502104605B0F0BD1F2853
:10274C00F2D921680B42EFD1236801930EF014FDEE
:10275C00A36801A90343D0B20393FFF7ADFF10F1B7
:10276C00160FE7D0421C01350C34D5E75956010839
:10277C001C3F0108044B0522C3F89420BFF34F8F74
:10278C00BFF36F8F704700BF00ED00E0BFF35F8FAA
:10279C00024B0022C3F89420704700BF00ED00E00C
:1027AC0010B5034C01232278FFF7B0FF207010BD49
:1027BC00DA18002008B50B4A00231278FFF7A6FFA1
:1027CC0010F1160F07D0084A0021D2F89030C3F34D
:1027DC000723984200DB08BDC2F89800C2F8A0108D
:1027EC000130F2E7DA18002000ED00E02DE9F043AB
:1027FC0057485849D0F890300D68C3F307239D42D1
:10280C0085B000F2A180FFF7C1FF49680022954214
:10281C0001F10C011AD1504C504F25706846FEF74F
:10282C00FFFFDFF83C81DFF83C9106460025AE4205
:10283C001FD1237846490020D1F89020C2F30722FB
:10284C0093427BDBFFF796FF00204CE0C0F898200A
:10285C0051F80C3C23F01F03134343F01003C0F852
:10286C009C3051F8043C43F00103C0F8A030013215
:10287C00CDE7009800EB05114FEA051CCB683B40F7
:10288C00B3F5000F44D00AD8B3F5001F2ED0B3F522
:10289C00800F34D0B3F5801F10D00135C7E7B3F1EA
:1028AC00807F3ED0B3F1007FF7D150F80C308868B0
:1028BC004A680EF061FC40F4802009E050F80C30BE
:1028CC0088684A680EF058FC40F0885040F430207C
:1028DC00039001A92078CDE90123FFF7EDFE002834
:1028EC0028DA6FF0150005B0BDE8F08350F80C3015
:1028FC0088684A680EF040FC40EA0800E8E750F8A7
:10290C000C3088684A680EF037FC40EA0900DFE7B3
:10291C0050F80C3088684A680EF02EFC40F082703B
:10292C00D6E750F80C3088684A680EF025FC40F069
:10293C008870CDE7237801332370AEE7C1F8983067
:10294C00C1F8A000013377E74FF0FF30CBE700BFB1
:10295C0000ED00E088400108DA1800200000F0FFCC
:10296C000000081100000206F0B587B007460E46BD
:10297C0014460021102268461D4610F08BFF0223DE
:10298C008DF802302A46054B019321466846CDE965
:10299C0004760DF0CDFA07B0F0BD00BFA51101080B
:1029AC0008B5024B1B689847002008BD7411002025
:1029BC00034B044A1860937843F0020393707047FA
:1029CC00741100208001002008B50649064821F04A
:1029DC000701C1F1005202F540320DF0A2FE0020B9
:1029EC0008BD00BF875200207811002003484FF02B
:1029FC00FF324FF0FF330CF077B800BF900100208E
:102A0C0001480CF0E9B800BF9001002038B505462C
:102A1C00FFF7ECFF08482A4608210DF013FE044688
:102A2C0028B925B110F0BAFF044B0C221A50FFF74D
:102A3C00E7FF204638BD00BF781100200C000000D5
:102A4C0010B50446FFF7D2FF214603480DF0BBFD3D
:102A5C00BDE81040FFF7D4BF7811002070B5A0FB83
:102A6C0001543CB92846FFF7D1FF064640B9002671
:102A7C00304670BD10F092FF044B0C221A50F6E752
:102A8C002A46214610F006FFF2E700BF0C000000BA
:102A9C0070B54169867A0B4D044659B1437ADB0710
:102AAC0006D42C2303FB06535B6A1B689B68984770
:102ABC00002363612C20214606FB0050BDE87040CA
:102ACC0010F099BBB0040020024B2C2202FB00300A
:102ADC00704700BFB0040020827A064B2C2101FB0A
:102AEC0002339A6A1B7F1B33801A23F00303B0FB5B
:102AFC00F3F07047B004002038B5074B827A2C24D1
:102B0C0004FB02335B6AD3E901240C601568FFF700
:102B1C00E3FF04FB005038BDB00400202DE9F04366
:102B2C0085B005466846039190461C4610F0CDFDD5
:102B3C00DDE90067EFF31189102383F31288BFF3EB
:102B4C006F8F6B8B002B41D02A8B9A4225D9002298
:102B5C00002328460CF090F80446F0B189F3118854
:102B6C00BFF36F8F039B002B41D032463B46684628
:102B7C0010F0D0FDA27A264B2C2101FB023320460B
:102B8C005B6A1B6803A91D68DDE90023A847606127
:102B9C0070BB2046FFF77CFF24E0698B4B1E6B83D8
:102BAC0089F31188BFF36F8F2B7F2A8BAC6A1B3391
:102BBC0023F00303521A02FB0344154B154AEB1A7C
:102BCC009B105343A3722B7FE372CBE789F31188DD
:102BDC00BFF36F8F2346424628460CF04DF804464F
:102BEC000028BFD10024204605B0BDE8F083636106
:102BFC00012300252381039B6382E27A65602946C9
:102C0C0004F1180010F046FE63692582E360EAE7E0
:102C1C00B0040020A38B2EBA70B50D4C2C2500B936
:102C2C0070BD037A4668002BFAD0013BDBB203720D
:102C3C00002BF5D1C3604360837A05FB03431B6A09
:102C4C0013B198473046EAE7FFF722FFFAE700BFD7
:102C5C00B004002010B503460548826814688AB297
:102C6C001946A0470028B4BF6FF00400002010BD27
:102C7C00803B01080E4B402970B528BF40210D4CFC
:102C8C0046181D46B04203F1020304D1002305F897
:102C9C001130074870BD02781209A25C03F8022CAF
:102CAC0010F8012B02F00F02A25C03F8012CE9E7EB
:102CBC00301900201F57010810B586B00378049313
:102CCC004378039383780293C37801930379054C7B
:102CDC0000934379044A122120460DF0FFF8204658
:102CEC0006B010BD1E190020BC56010830B5037883
:102CFC008BB0044607AD032B21D8DFE803F0021A92
:102D0C001C1E12492846FDF72DFA0595637804938D
:102D1C00A3780393E3780293237901936379009367
:102D2C00A3790B4A0B481E210DF0D8F809480BB0BB
:102D3C0030BD0949E6E70949E4E70949E2E7094AF0
:102D4C000A2128460DF0CAF8DFE700BFDA56010861
:102D5C00FC56010800190020E1560108E85601084C
:102D6C00F2560108AB84010810B5034C252221460C
:102D7C0000F064F8204610BDDB18002030B50B4D78
:102D8C000B4B87B0002428460393CDE9044410F084
:102D9C000AFB03AB0093284606490A234FF4A862AA
:102DAC000CF074F9204607B030BD00BFA80A002013
:102DBC0030570108001D0020014601480CF0A6B94F
:102DCC00A80A00200378012B30B513D0022B27D092
:102DDC007BB9194B0A4603F1100453F8045B42F813
:102DEC00045BA342F9D11B78137043884B731B0A05
:102DFC008B7330BD104B0A4603F1100453F8045B7F
:102E0C0042F8045BA342F9D11B78137043684B73EF
:102E1C00C3F307221B0CCB731B0A8A730B74E8E7F2
:102E2C0000F1100350F8042B41F8042B9842F9D10F
:102E3C0003780B70DDE700BF5657010810B5034649
:102E4C0086B01C78012C0846114609D0022C0AD0F9
:102E5C00FCB95B88124A06B0BDE810400DF03EB8D4
:102E6C005B68104AF7E7B3F801200492D3F803200B
:102E7C000392B3F807200292B3F809200192B3F839
:102E8C000B200092D3F80D30074A0DF027F806B04E
:102E9C0010BD002106B0BDE8104010F0FBBC00BF17
:102EAC00B47301086D5201083957010810B50EF0C2
:102EBC00A3FA10F0CDFA0E4C30B1BFF35B8F236840
:102ECC00BFF35B8F7BB910BD0CF08CFBBFF35B8F3A
:102EDC002368BFF35B8F1BB9BDE810400CF096BBA9
:102EEC000A209847F8E7BDE810400A20184700BFB1
:102EFC008411002038B5044608480EF05EF90546EA
:102F0C0048B1631EDBB21F2B96BF054A0021D15C72
:102F1C000C300EF0C1F9284638BD00BF8C050020DE
:102F2C00A95701080F2810B50CD80D280CD90A4840
:102F3C000EF043F9044618B104210C300EF0ACF934
:102F4C00204610BD1328F2D009B10448F0E7BDE8C3
:102F5C0010400220FFF7CEBFB80500200805002066
:102F6C002DE9F84300AFE9468AB0904604460D4679
:102F7C001E466A46184B5361184BC2E906300623AD
:102F8C00C2E9088642F8103F002315484FF444511B
:102F9C00FEF788F9CD4605F10C0904F10C01484601
:102FAC000EF064F948460EF0B0F9012310FA88F0DF
:102FBC0060826372A4F81080414648460EF085F991
:102FCC00EB6873606A8A00232046EB6072816B8227
:102FDC003560BD46BDE8F88367570108DD57010829
:102FEC00A43E0108F8B500AF6E468AB005460C4603
:102FFC006A46114B5361114B1162C2E9063005232D
:10300C0042F8103F4FF424510D480023FEF74AF9C3
:10301C00D4E90032DA60236862895A82B5462068A6
:10302C00FFF7FAFD10220021204610F033FC284651
:10303C000EF0E2F9BD46F8BD8D570108C9570108DD
:10304C00A43E0108C368034A1B78034802210EF012
:10305C0009BA00BFFD570108C43E010810B5012193
:10306C000C300EF03AF9BDE810400378024A0348E0
:10307C0001210EF0F7B900BF25580108C43E010824
:10308C00014610B508480EF09CF80849084810F0A5
:10309C005FF9031E06DABDE81040064A0648012116
:1030AC000EF0E0B910BD00BF4C010020B4010020AF
:1030BC00E80B002047580108C43E010810B586B043
:1030CC0003AB002400930749074805944FF0FF33E6
:1030DC004FF48062CDE903440BF0D8FF204606B0D4
:1030EC0010BD00BF80220020480B002010B5084CFA
:1030FC000146062294F86F0003F0A2FD38B994F84B
:10310C006F000449BDE81040052203F099BD10BDC5
:10311C0000000020A2560108024A034801210EF0CB
:10312C009FB900BF64580108C43E0108B0B50B46F6
:10313C000D8A00AF04462946D868FFF79BFD8AB07C
:10314C006A46094BC2E9053440F202439384074BAB
:10315C00C2E907504FF4325142F8103F04480EF0C8
:10316C0092F9BD46B0BD00BF7E58010805000001B4
:10317C00C43E0108F8B5C46800AF6E468CB0B4F814
:10318C0001502178E3786A461548506115489362DE
:10319C00C2E9060140F2024313499385134B1448CC
:1031AC00C2E9081542F8103F4FF474510EF06BF958
:1031BC00B54626785EB90F21284603F04FF8044631
:1031CC0038B90C4A0A482B4601210EF04BF9BD4682
:1031DC00F8BD314602F00AFF204602F06FFEF6E71A
:1031EC00A05801083A620108945101080700000137
:1031FC00C43E0108CD580108F8B5C66800AF6D464D
:10320C008CB0B6F801403178F3786A4618485061B2
:10321C0018489362C2E9060140F2024316499385AD
:10322C00164B1748C2E9081442F8103F4FF474517A
:10323C000EF029F93378AD4683B90F21204603F0FF
:10324C000DF8F378054658B90E4A118831B96FEA72
:10325C0004546FEA145414800B4A1370BD46F8BD25
:10326C004372012102F0C2FE284602F027FEF5E768
:10327C00A05801089E620108945101080700000142
:10328C00C43E0108B0180020B119002070B5C56803
:10329C00B5F801600121304602F0E0FF044638B970
:1032AC0033460D4A0D48BDE8704001210EF0DAB8E6
:1032BC002B783BB9D5F80330C0F89930D5F80730E6
:1032CC00C0F89D30201D4FF480310EF0CDF8204613
:1032DC00BDE8704002F0F2BDF3580108C43E01088D
:1032EC002DE9F04F83B0C668008A3178042401239D
:1032FC0014FB0133834200AF14D96C468AB06A4682
:10330C00444DC2E907300523C2E90551424842F851
:10331C00103F4FF421510EF0B6F8A5460C37BD46C0
:10332C00BDE8F08F6D4688B06A46DFF8F0903C4BF4
:10333C005361C2E90691384842F8104F4FF40451DA
:10334C00DFF8D4800EF09FF8AD46002533789D420F
:10335C00E4DA06EB8503EB468AB0B3F801A0B3F8C8
:10336C0003406A462F4BC2E905390523C2E907A47D
:10337C004FF4245142F8103F40460EF084F80F21D0
:10338C00DD46504602F06AFF834670B100F1C40A74
:10339C003CB1DBF8142082B9234A012140460EF0DF
:1033AC005FF8584602F08AFD05E0204A5346012199
:1033BC0040460EF057F80135C8E7DBF818001168E5
:1033CC00CBF81410824208BFCBF8181058467A601C
:1033DC0002F000FC0BF082FC7A6800231360DBF82F
:1033EC00201099B9CBE90722BFF35B8F5AE8002F65
:1033FC00013A4AE800210029F8D1BFF35B8F002184
:10340C005846013C02F0F2FBA4B2C1E70A60CBF8CB
:10341C002020E9E717590108C43E0108B8620108E9
:10342C004259010855590108885901086C5901087D
:10343C0037B502EBC303934204D103B0BDE830406F
:10344C00FFF774BE144614F8085B854211D10B8A41
:10345C0054789C4207D9084A0090012107480DF086
:10346C003FFD03B030BD5368084603B0BDE83040A3
:10347C0018472246DFE700BF9F590108C43E0108E8
:10348C002DE9F0470C4600AF0CF0ACF8E3686E4643
:10349C008AB01D78238A6A464749516147491362AD
:1034AC000523C2E90614464842F8103F4FF4245154
:1034BC000DF0E9FF022DB54674D0042D0BD0414A16
:1034CC003F482B4601210DF0CDFF2046FFF7A4FB12
:1034DC006FF015040BE0238A022B0ED83A4A3848B9
:1034EC0001210DF0BFFF2046FFF796FB00240CF0E6
:1034FC008DF82046BD46BDE8F087E26850783E283E
:10350C000AD1032B01D1314AE9E7D378012B01D041
:10351C000A2B47D1032604E00DF090FF0646F00776
:10352C003ED504F10C0528460DF0EFFE0121804636
:10353C002846B4F810A00DF0C8FE022128460DF064
:10354C00CCFE814600783E2816D1E3681B78012B0F
:10355C002CD00A2B2AD002251D4A1E491E4841F2A6
:10356C004B130DF082F9002383F31188BFF36F8F97
:10357C000323184602DF04E00DF060FFC107054687
:10358C00EAD5164A99F8000006232146FFF750FFAA
:10359C00AA070DD56369A4F810A013FA88F3E360A9
:1035AC00B307A3D52046FFF76BFD9FE70325E8E79C
:1035BC002046FFF731FBF3E7C1590108E962010826
:1035CC00C43E0108795A0108D3590108EF59010882
:1035DC000F5A0108435A01085C5A0108F0400108CF
:1035EC00F8B5012100AF05460C300DF076FE6E46A5
:1035FC0088B0037804466A460A4951610A490B4867
:10360C00C2E90613042342F8103F4FF404510DF0A5
:10361C003AFF074A2078B54602232946FFF708FFF0
:10362C00BD46F8BD8D5A0108D2620108C43E01089E
:10363C00204101082DE9F04782B06D4602AF88B0F9
:10364C0002AA6A4B6A4E53614FF0030996616948AE
:10365C0042F8109F4FF4C8510DF015FF6648AD4667
:10366C000DF0C4FD0446002800F08C8000F10C081D
:10367C0040460DF03AFE8AB0238A824602AA5F4980
:10368C005362C2E905160626C2E907404FF44451BD
:10369C0042F8106F57480DF0F6FEBAF1020FAD4626
:1036AC0005D0BAF1040F70D0554A534615E088B0D6
:1036BC0002AADFF85091544B53614FF0040AC2E94F
:1036CC0006944C4842F810AF4FF404510DF0DBFE59
:1036DC00238A032BAD4605D84C4A464801210DF0F0
:1036EC00C1FE28E0514640460DF0F7FD0388B0F8C6
:1036FC0002A04FEA1338FF22C3F30B038AB02276E1
:10370C00638302AA4249C2F82480C2E90519C2E9BE
:10371C00073A384842F8106F4FF444510DF0B3FE9D
:10372C00238A9A45AD460AD03A4A3248CDF800A0D1
:10373C0001210DF0D5FB2046FFF76EFA13E0608BEC
:10374C000F2102F08BFD054610B9638B324AC4E79A
:10375C0002F0AAFD424620762146284602F09CFA49
:10376C00284602F0ABFB2D4BD3F84C3153B12C490E
:10377C002C480FF0EDFD031E04DA2B4A1D480121E5
:10378C000DF070FEBD46BDE8F087022140460DF0FD
:10379C00A4FD88B00378064602AA24495161244945
:1037AC001448C2E9061342F810AF4FF404510DF05F
:1037BC006AFE30783E28AD4611D00DF03FFE10F079
:1037CC0002050CD11B4A1C491C4840F6AE430DF0B7
:1037DC004CF885F31188BFF36F8F484602DF184A07
:1037EC00307804232146FFF723FEA4E7A15A0108F1
:1037FC0061620108C43E01084C010020C05A010856
:10380C00A95B010859620108DA5A0108E55A010856
:10381C00065B0108245B0108485B010800000020DE
:10382C00B4010020E80B0020475801086A5B01082E
:10383C004F6201080F5A01087B5B01085C5A0108B2
:10384C0030410108F8B5012100AF05460C300DF0F0
:10385C0044FD6E4688B0037804466A460A495161B5
:10386C000A490B48C2E90613042342F8103F4FF4EF
:10387C0004510DF008FE074A2078B5460623294668
:10388C00FFF7D6FDBD46F8BD8D5A01082862010828
:10389C00C43E0108504101082DE9F04F83B06C463D
:1038AC0002AF8CB016468346894602AA594951612B
:1038BC0059495A4BC2F82090C2E9091640F20351FB
:1038CC0091855749C2E9063042F8101F55484FF40C
:1038DC0074510DF0D8FDA546BBF1000F14D0DFF8E4
:1038EC0048A1BFF35B8F00225AE8004F4AE8002141
:1038FC000029F9D1BFF35B8FA0464CB94B4A49481C
:10390C005B4601210DF0AEFD0437BD46BDE8F08FDE
:10391C002046FFF7E1F8464D0C2202FB005041888F
:10392C0059451ED02046FFF7D7F80C2202FB005059
:10393C0042883C4800925B463E4A01210DF0D0FA89
:10394C00BFF35B8F5AE8003F4AE80082002AF9D1A6
:10395C00BFF35B8F002BD7D098464046FFF75CF93E
:10396C00D2E7A64208D020460DF022FC328AF1683C
:10397C0004F10C000DF087FC2046FFF7ADF80C2687
:10398C0006FB00504368ABB1B9F1000F12D12046D1
:10399C00FFF7A2F806FB005001214268D2E90003B0
:1039AC00127A03F01F06B1405B096AB300EB830087
:1039BC000DF05AFD2046FFF78FF84FF00C0A0AFB6A
:1039CC0000508368002BC8D06E4688B002AA1A4BF0
:1039DC005361124B9361032342F8103F4FF4C851CB
:1039EC0010480DF050FD2046B546FFF775F80AFB60
:1039FC0000F005F800902046FFF76EF80AFB005522
:103A0C00A8680BF06BF9A8E7C94300EB83000DF035
:103A1C003DFDCFE7BD5B01089451010882620108AE
:103A2C0007000001C43E010848010020E75B0108C3
:103A3C00881100200F5C0108425C0108F0B583B0CE
:103A4C00C56800AF6C468CB0B5F801602B786A463F
:103A5C004A4951614A494B48C2E906134A4BC2E9EB
:103A6C00083640F202431385484B42F8103F4FF49E
:103A7C0054510DF008FD0121A546304602F0EEFB35
:103A8C00044640B9424A3F48334601210DF0EAFC56
:103A9C000C37BD46F0BD2B781A2B00F1040617D15C
:103AAC00C378012B4ED14FF4804130460DF0DCFC35
:103ABC0042040DD4D4F88C303B603946D4F89430A1
:103ACC007B60204603F09CFF204602F0F7F9DFE70D
:103ADC002B78BBBBB5F803302E4940F2E24253437E
:103AEC00C4F88830B5F80520A4F89020B5F8072064
:103AFC00A4F89220A3F5EA520C3A8A4204D9264A39
:103B0C00204802210DF0AEFCB4F89030B3F5FA7FEA
:103B1C0004D3224A1B4802210DF0A4FCB4F89230C5
:103B2C00A3F10A0292B240F676418A4204D91C4AA9
:103B3C00144802210DF096FC6FF4805130460DF0C4
:103B4C00A5FC17E0BFF35B8F6368BFF35B8FDB04EF
:103B5C00F2D52B78202BEFD194F89830002BEBD0AA
:103B6C00013B84F8983049F64042002304F14000B0
:103B7C000BF0F6FA204602F033FFA5E7585C01087B
:103B8C00F9610108C43E01089451010806000001C6
:103B9C00F358010895F03C00785C01089F5C010823
:103BAC00C65C0108B0B53C2800AF04461AD101F040
:103BBC00C3FC6FF4807110300DF068FC0020FFF72F
:103BCC0095FA054630B9124A124801210DF048FC0D
:103BDC00BD46B0BD4472002102F008FA284602F03E
:103BEC006DF9F5E76D468AB06A460B4BC2E90530B4
:103BFC000A4BD36140F201331384094B42F8103F56
:103C0C0004484FF412510DF03EFCAD46E0E700BF06
:103C1C00F25C0108C43E0108135D010894510108CF
:103C2C000400000110B5C1E900239DF808300B72A7
:103C3C000C46FEF751FF034B0C2202FB00335C6079
:103C4C0010BD00BF881100202DE9F04102460B4643
:103C5C00224800AF0DF0B1FA214B044690B96D46E5
:103C6C0088B06A461F492048C2E90513032342F86D
:103C7C00103F4FF4C8510DF006FCAD462046BD4632
:103C8C00BDE8F0816E4688B06A461849D0610425BB
:103C9C00C2E90513144842F8105F4FF404510DF0BB
:103CAC00F2FB2946B54604F10C000DF0DBFA204678
:103CBC00FEF712FF0E4D4FF00C0808FB00500026CB
:103CCC0046802046FEF708FF08FB00508660204621
:103CDC00FEF702FF08FB00556E60CFE76005002081
:103CEC00926301082F5D0108C43E0108DA5A0108ED
:103CFC00881100200138C0B202289ABF014B185C11
:103D0C0000207047AF610108F8B5C568B5F80160CF
:103D1C0000AF0121304602F0A1FA044638B91B4A23
:103D2C001B48334601210DF09DFBBD46F8BD6E4688
:103D3C008CB02878E9782B796A46DFF858C0C2F83D
:103D4C0014C0DFF854C09362C2E906C040F20243CB
:103D5C0012489385124BC2E9080142F8103F4FF408
:103D6C0074510B480DF08FFBB546E878FFF7C2FF96
:103D7C0084F8A8002879FFF7BDFF84F8A900204635
:103D8C0002F082FE204602F099F8CEE7F3580108C3
:103D9C00C43E0108765D01081162010894510108C6
:103DAC000700000110B592B004460749442201A84F
:103DBC000FF062FD102C9BBF12AB03EB8404034885
:103DCC0054F8440C12B010BD883F0108A95D0108DD
:103DDC00B0B5C368018A1B7800AF6D468AB0044643
:103DEC006A460C4850610C48C2E908130623C2E924
:103DFC0006044FF4445142F8103F08480DF043FBC1
:103E0C00074BD3F86C018368AD469B6821469847F5
:103E1C00BD46B0BDB15D0108F8620108C43E0108A1
:103E2C00000000202DE9F84F042100AF45480DF0AB
:103E3C001BFB6D4688B06A46434B5361434B936101
:103E4C004FF400739383424C424B42F8103F4FF4B3
:103E5C00E6514148414E0DF016FB414BE279AD461F
:103E6C002046012A88BF1E46FEF740FF8AB06A46EC
:103E7C003C4BD061C2E905363B4B13623B4B42F8DD
:103E8C00103F35483A4EDFF8EC80DFF8CC904FF419
:103E9C0023510DF0F8FAA346AD460125E3799D4276
:103EAC000BF1070B38DB94F870502846FFF77AFFBC
:103EBC006E468CB0B4F87210B4F876306A46DFF8FF
:103ECC00B8C05362C2E907512C4B4FF40075C2E9DC
:103EDC0005C015854FF4535142F8103F1E480DF0A4
:103EEC00D2FAB54694F871603046FFF75BFF8AB0A2
:103EFC00B4F874306A4622499584C2E90763214BB1
:103F0C00C2E9051042F8103F13484FF433510DF03D
:103F1C00BAFABD46BDE8F88F5846FEF7E7FEEA460A
:103F2C008AB06A4640F20133C2E90565D061138458
:103F3C004FF4135142F8108F48460DF0A4FA013596
:103F4C00D546ABE7D0000020CF5D0108E15D01084C
:103F5C000000002003000001C43E01089451010838
:103F6C00CB5D0108E85D01080002010304000002BA
:103F7C00F75D010804000001085E0108060000015D
:103F8C00465E01080500000100487047F14F01082A
:103F9C0098B500AF6C4688B06A46094B5361094B23
:103FAC009361032342F8103F07484FF4C8510DF0BA
:103FBC006AFA06490648A5460FF0CAF9BD4698BDEF
:103FCC006D5E0108D1610108C43E0108A401002006
:103FDC00480B0020F8B5054600AF0C4661B94FF010
:103FEC00FF304FF0FF31FFF72FFE044620B96FF082
:103FFC0068052846BD46F8BD6E468AB0238A6A46D7
:10400C0022495161224913620523C2E90615214850
:10401C0042F8103F4FF424510DF035FA2046B546C6
:10402C00FEF75AFD1C4B0C2202FB0033A61830463F
:10403C005D800DF06AF903280BD9032130460DF091
:10404C0033F90580238A033B8370012130460DF040
:10405C0033F940F635439D420FD12046FFF7B8FEA9
:10406C0005460028C5D003460C4A0A4801210DF02C
:10407C00F9F92046FEF7D0FDBBE7094821460FF0C1
:10408C00AFF80025FFF784FFB3E700BF575D0108C9
:10409C0082630108C43E010888110020795E010882
:1040AC00540100202DE9F04F87B0064600AF904632
:1040BC000C4671B94FF0FF304FF0FF31FFF7C4FDE4
:1040CC00044668B96FF0680528461C37BD46BDE844
:1040DC00F08F887AFEF7F8FC524B834240F09B80BD
:1040EC006D468AB0238A6A46DFF83CA14F4951617C
:1040FC00C2E908630623C2E906A44D4842F8103F02
:10410C004FF444510DF0BFF9AD4601220021384661
:10411C000FF07FF82046FEF7DFFCDFF818B10C2318
:10412C0003FB00B0876020460DF076F80146304660
:10413C00FFF750FF054618B12046FEF76DFDC3E7AB
:10414C003D4A002338460AF003FE814690B14FF4F5
:10415C00FD733A4A3A493B480CF087FB3A484A46C9
:10416C0031460CF082FB85F31188BFF36F8F03236C
:10417C00184602DF2046FEF7AFFC0C2358431BF811
:10418C000090B9F1000F2DD06D468AB06A462F4BC6
:10419C00C2F81C90C2E905362D4B136240F2024363
:1041AC0093842C4B42F8103F21484FF432510DF0C0
:1041BC006AF92046AD46A9F10909FEF72DFDB9F1C2
:1041CC00090F0CD8DFE809F0050B0B082A0B0B0BB9
:1041DC000B276FF06E0577E76FF00C0574E76FF047
:1041EC00040571E7E9468AB0238A6A461A49536284
:1041FC000623C2E9051AC2E907460D4842F8103FEA
:10420C004FF444510DF03FF9CD46B8F1000F93D067
:10421C00C8F8004058E76FF0150555E76FF00B052F
:10422C0052E700BF600500206D6301089B5E01082A
:10423C00C43E010888110020803801000F5A010883
:10424C00BB5E01085C5A0108C45E0108095F0108E5
:10425C009451010805000001285F01082DE9F04F79
:10426C00684B694D89B002AF186838619B88D5F8E6
:10427C006C01BB828368DB6843B107F1100198477E
:10428C00044618B110F1580F40F0B68007F10C023B
:10429C00002141F20300FFF705FF0446002840F01F
:1042AC00AB80D7F80CB0C7F804D0DBF80C303B600F
:1042BC009A468AB01AF8011B02AA5448544BDFF8EC
:1042CC0054911362C2E9060140F202485249C2F805
:1042DC001490A2F82480514842F8101F4FF4345126
:1042EC000DF0D1F83B68DAF80410D3F801004C4E0D
:1042FC00D7F804D003C65846FEF78EFC214607F1CA
:10430C000C0241F20100FFF7CDFE0446002873D1E8
:10431C00D7F80CB0DBF80CA08AB09AF8003002AADF
:10432C004049C2F81490C2E90613394B3A4913625A
:10433C00A2F82480394842F8101F4FF434510DF084
:10434C00A2F89AF8013085F87030BAF80230A5F866
:10435C0072309AF8043085F87130BAF80730A5F845
:10436C007430BAF80530D7F804D0A5F87630584632
:10437C00FEF752FC214607F10C0241F20200FFF756
:10438C0091FE0446002837D1D7F80CB0DBF80CA00E
:10439C0054468AB014F8013B02AA2349C2F814907F
:1043AC00C2E906131A4B1C491362A2F824801B485D
:1043BC0042F8101F4FF434510DF065F8D7F804D0C3
:1043CC000AF1410A20686168334603C30834544536
:1043DC001E46F7D15846FEF71FFC01F031FA044691
:1043EC0050B995F87C30590622D4104A0B4801215B
:1043FC000DF036F86FF0120420461C37BD46BDE8B0
:10440C00F08F00BFB6560108000000204A64010876
:10441C0094510108485F010805000001C43E0108E1
:10442C007800002032640108116401085D5F010806
:10443C00014607F10C0242F20300FFF733FE04467B
:10444C000028D9D1D7F80CB0DBF80C307B609A4639
:10445C00E9468AB01AF8011B02AAC048DFF80083AB
:10446C00C04EC2F81480C2E9060140F20243BE49B4
:10447C0093841662BD4842F8101F4FF434510DF06E
:10448C0002F87B68DAF80410D3F80100B84ACD467C
:10449C0003C25846FEF7C0FB214607F10C0242F25C
:1044AC000200FFF7FFFD04460028A5D1D7F80CA0A9
:1044BC00DAF80C408AB0237802AADFF8B8B2AA491D
:1044CC00C2F81480C2E906B340F202439384166228
:1044DC00A64842F8101F4FF434510CF0D4FFB4F836
:1044EC00012093B2CD461BB3E17809B3A5F80421A2
:1044FC008AB0E17802AAA048C2E907130523C2E9F1
:10450C00050B4FF4245142F8103F98480CF0BBFFB8
:10451C00E378032BCD4606D0032200929348974AAA
:10452C0002210CF0DDFCE278954811460EF071FE8C
:10453C005046FEF771FB95F87C901F2319F020096B
:10454C00A5F820311AD14FF0FF304FF0FF31FFF7B3
:10455C007BFB044600284CD002210C300CF08DFE65
:10456C000123037080F8019021464A4640F66D40C5
:10457C00FFF798FD044600287FF43EAF95F89C3079
:10458C001A072ED507F10C02002142F21C00FFF78E
:10459C0089FD044600287FF42FAFD7F80C90D9F88A
:1045AC000CB05C46EA468AB014F8013B02AA754985
:1045BC00C2F81480C2E9061340F2024393846A4B9A
:1045CC0016626A4842F8103F4FF434510CF05BFF0E
:1045DC00DBF801206368D5464846C5E93823FEF769
:1045EC001BFB4FF0FF304FF0FF31FFF72DFB044664
:1045FC0010B96FF06804FFE608210C300CF03DFE9A
:10460C0095F8D83095F8D92013F0020F14BF2F234A
:10461C000F2312F0090F18BF43F40063002203703C
:10462C001B0A43708270C270027142718271C27136
:10463C00214642F20100FFF735FD044600287FF4C5
:10464C00DBAE95F87C30B5F804119B067BD40029C1
:10465C0046D107F10C0241F20500FFF723FD044699
:10466C0000287FF4C9AEFC68D4F80CA0E9468AB0E7
:10467C009AF8003002AAC2F81480DFF80C81166296
:10468C00C2E9068340F202439384374B42F8103F51
:10469C0036484FF434510CF0F6FEB5F80431CD46E3
:1046AC00DBB9BAF80130A5F804318AB0BAF8045075
:1046BC0099B202AA354B2D48C2E905380523C2E947
:1046CC00075142F8103F4FF424510CF0DCFECD465C
:1046DC002B482A4629460EF09CFD2046FEF79CFAF4
:1046EC004FF0FF304FF0FF31FFF7AEFA04460028D1
:1046FC003FF47FAF08210C300CF0BFFD102303708A
:10470C008823437002230022C3702023827002711D
:10471C0042718271C371214640F60140FFF7C2FC21
:10472C00044600287FF468AE00F0AAFD0446002879
:10473C007FF462AE02F0CEFB044600287FF45CAE40
:10474C00FFF770FB58E60029CAD1114A074801212E
:10475C000CF086FE6FF004044EE600BFF763010810
:10476C00485F01089451010805000001C43E01088E
:10477C00D8000020DA630108815F0108A45F0108FA
:10478C0008010020BD630108A3630108EA5F01086A
:10479C001160010810B5FFF761FD034B1B6813B1E5
:1047AC00BDE81040184710BDA011002073B52A4D6C
:1047BC000646D5F86C010EF0E2FB48B9274A2848AA
:1047CC0001210CF04DFE6FF01204204602B070BDBA
:1047DC006FF0020105F1D0000CF058FE01210CF035
:1047EC0043FE10EA010434D11E4B1E600A4605F547
:1047FC0098700EF00EFD05F5AA700EF0E5FC1A4847
:10480C000EF0D1FD1949184800946FF007034FF4CE
:10481C0096620AF03BFC164913480EF01FFED5F8C1
:10482C006C01144983681B689847044630B10346F1
:10483C00114A0B4801210CF015FEC6E726B902B04F
:10484C00BDE87040FFF70ABD05F1C0000AF018FC86
:10485C00BBE76FF07704B8E7000000203460010874
:10486C00C43E0108A0110020E80B0020C026002047
:10487C004C6001088D340008556001082DE9F04F9B
:10488C0087B0834BB0F801901988C57849F4704211
:10489C0091424FF0000800AF08BFA3F8008000F170
:1048AC00040608BF7B4B017808BF93F80080396081
:1048BC0004463046FEF71AFA04F1110A78605046A5
:1048CC00FEF7FAF9EB4690B06A463968D161724945
:1048DC009562C2E908197149396140F60601B9823D
:1048EC0007F11005106395E803006D4B53616D4B98
:1048FC00936111877B686C49D362506342F8101F37
:10490C006A484FF4AA410CF0BEFD04F10B00DD46E1
:10491C00FEF7D2F98AB06A46624B65495161C2E929
:10492C00063040F201331384624B42F8103F4FF4CF
:10493C0014515E480CF0A7FDE378012B08BF5E4BC9
:10494C00DD4630460CBF93F86FB04FF0000B0CF007
:10495C004FFD314660B328460CF03FFDD4F81130C2
:10496C00C7F80930BAF80430A7F80D304FF0010B36
:10497C00E378012B2FD03046FEF7B8F96C4688B09F
:10498C006A464E4BC2E905304FF4007393834C4B8F
:10499C00464842F8103F4FF4E2510CF074FD1321DD
:1049AC00A54648460CF0BFFD1C37BD46BDE8F08F50
:1049BC0058460CF01DFE0346006838619A889B79B6
:1049CC006068AA80AB71B288B37994F804B0B8600F
:1049DC00BA81BB73CCE72846FEF788FB82460028D9
:1049EC00C9D00346B4F8012023F8702B3869CAF8F3
:1049FC007000AA79A98899809A71B4F8173040F29E
:104A0C00E2425343CAF88830B4F81930AAF890300F
:104A1C00B4F81B30AAF89230E3788AF803300022FD
:104A2C008AF80920012B40F20112AAF8A8201BD108
:104A3C0087F808B0BA89BB7BB868AAF87B208AF8DB
:104A4C007D30CAF8770000F077FD9AF808301A49E3
:104A5C00C3EBC3035A18CB58CAF87E309388AAF814
:104A6C00823093798AF884300721504601F0BEFADF
:104A7C00B8F1000F05D08AF809800121504601F0E9
:104A8C00B5FA504601F062FC504601F017FA8BE77C
:104A9C00B0180020B1190020945101080204050738
:104AAC00716001085163010809000003C43E01084C
:104ABC00AC6001080400000100000020BD6001088A
:104ACC00030000012DE9F04389B0C468267800AFDB
:104ADC0036B13046FFF766F82437BD46BDE8F083A3
:104AEC00251D284694F80390E846FEF7FFF88CB095
:104AFC006A461F4B53611F4B9062C2E906361E4B30
:104B0C001E48C2E908391E4BD3621E4B42F8103FB7
:104B1C004FF482410CF0B7FC23783B70B4F80130B1
:104B2C00A7F80130E378FB70B4F80B30A7F8173016
:104B3C00B4F80D30A7F81930B4F80F30A7F81B30C3
:104B4C00637C7B7760687860AB79AA88BB720E4B0C
:104B5C003A81C5461A689B88C7F80B203846A7F8D7
:104B6C000F30C7F81120A7F81530FFF787FEB3E711
:104B7C00D9600108E161010894510108C43E0108A3
:104B8C000204040607000002B656010873B5C36898
:104B9C00D9789A781E8842EA0122ADF8002059791A
:104BAC001A7942EA0122ADF80220D9799A7942EABF
:104BBC000122ADF804201A7A5B7AB4B242EA0323DC
:104BCC0001212046ADF8063001F048FB054658B9E6
:104BDC001D481E4A012123460CF044FC02212046AC
:104BEC000CF0E0FC02B070BD694601F073FF38B9FF
:104BFC001E2120460CF0D6FC284601F05FF9F1E7A7
:104C0C004FF0FF304FF0FF31FFF71EF8044600283D
:104C1C00F2D00E210C300CF030FB00230680C0F8D3
:104C2C000A30BDF800304380BDF802308380BDF8F7
:104C3C000430C380BDF806300381214642F22000C7
:104C4C00FFF7C8F9D8E700BFC43E0108F3580108C4
:104C5C002DE9F843042100AF05460C300CF03DFB68
:104C6C00E94688B0468890F8018004466A460F4BA6
:104C7C0053610F4B0F48C2E90636042342F8103F2C
:104C8C004FF404510CF0FFFB2A462178CD463046F8
:104C9C00FEF702FEB8F1000F04D007480AF01EF828
:104CAC00FFF776F9BD46BDE8F88300BFF96001084F
:104CBC008F620108C43E0108300100202DE9F0414B
:104CCC00032100AF04460C300CF007FB6E4688B095
:104CDC0090F80080B0F801506A461B4B53611B4B97
:104CEC001B48C2E90635042342F8103F4FF4045127
:104CFC000CF0C9FBE368197840F635439D42B54684
:104D0C0015D18AB06A46134B1148C2E90531124BD2
:104D1C00D36140F201331384104B42F8103F4FF42F
:104D2C0012510CF0B0FBB546BD46BDE8F0812246F1
:104D3C002846FEF7B1FDB8F1000FF5D0084809F090
:104D4C00CDFFFFF725F9EFE7F96001087162010863
:104D5C00C43E01080B6101089451010804000001D4
:104D6C00300100202DE9F84300AF6C4688B06A464C
:104D7C00494B53610326494B9361494842F8106FE4
:104D8C004FF4C8510CF07FFBA5460AF02BFC454DA7
:104D9C00D5F85431002B7CD00022002305F59870F7
:104DAC0009F0D6FF002874D188B06A463E4BDFF874
:104DBC00FC805361C2F81880394842F8106F4FF4E8
:104DCC00C8510CF060FBA5460022002305F5AA7023
:104DDC0009F052FF044660B9354A3649364840F668
:104DEC00BE430BF042FD84F31188BFF36F8F304646
:104DFC0002DFD5F848315BB1304A294801210CF06B
:104E0C002FFBD5F84801FDF707FF0023C5F8483103
:104E1C0020460CF001FAC5F848012046FDF75CFE6F
:104E2C00274D0C2606FB0050E9468AB043886A469B
:104E3C0024491B48C2E907340523C2E9051842F886
:104E4C00103F4FF424510CF01EFB2046CD46FEF7CC
:104E5C00BFFF0346B0B11C4A114801210CF002FB04
:104E6C001A4809F03BFF2046FDF736FE06FB0055BD
:104E7C00224668881F21FEF70FFD2046FDF7CCFE69
:104E8C00FFF786F8FFF784F80AF0C0FBBD46BDE8D3
:104E9C00F88301F083FAF7E743610108C461010864
:104EAC00C43E01080000002058610108B2610108ED
:104EBC000F5A0108F98401085C5A0108666101085F
:104ECC008811002081610108795E01083001002001
:104EDC00F8B50A4DEF7906460024E3B29F4202D89A
:104EEC006FF0010007E0294630460CF077FB0735E0
:104EFC00631C08B12046F8BD1C46EEE700000020FC
:104F0C00F8B500AF05466C46FDF7D6FE8AB06A468A
:104F1C00234B5361234BC2E9063040F20133138417
:104F2C00214B42F8103F214E21484FF414510023DD
:104F3C00FCF7B8F90622A546314628460EF0B2FC1D
:104F4C0040B34FF0FF304FF0FF31FEF77DFE0446CB
:104F5C0010B3062229460C300CF095F9214600229C
:104F6C0042F20500FFF79EF8044650B110F10D0F08
:104F7C0004D1104A0E4802210CF038FB2046BD46E5
:104F8C00F8BD33462A6843F86929AA88B280012201
:104F9C0083F868200024F1E76FF06804EEE700BFA7
:104FAC00F05D0108DD6501080400000169000020C6
:104FBC00D43E01086764010837B504460D4689B133
:104FCC00184928460CF00AFB60B9174A2968C4EB4B
:104FDC00C404A3181151AA889A80AA799A71002046
:104FEC0003B030BD68460CF0EAF90028F8D16846E9
:104FFC00FFF76EFF0028F5DA0B4A00989DF80610B3
:10500C00C4EBC404A3181051BDF804009880997126
:10501C00002DE4D012592A609A88AA809B79AB7132
:10502C00DDE700BFA95601080000002070B504465A
:10503C00B1B9C0B120490CF0D1FAA0B92046FFF7A4
:10504C0047FF002831DA2378012B04D1A37903F030
:10505C00C003C02B07D0194A194801210CF0C6FA1D
:10506C006FF0150070BD174DEB79012B20D0BFF3FD
:10507C005B8FD5F8D030BFF35B8FDB0707D4002CE8
:10508C00EED00D4920460CF0A9FA0028E8D1EE79B3
:10509C002146731C3046EB71FFF78EFF08B9304682
:1050AC00E0E7EB79013BEB71DCE76FF07700D9E7D8
:1050BC006FF00B00D6E700BFA95601087664010813
:1050CC00D43E0108000000202DE9F04383B00446D3
:1050DC0000AF48B9234A244802210CF087FA00207B
:1050EC000C37BD46BDE8F0833A1D002141F20900A2
:1050FC00FEF7D8FF054608B11C4AECE7D7F8048048
:10510C001B49D8F80C9009F10106062230460EF026
:10511C00C9FB28B11749062230460EF0C3FBA0B9D3
:10512C006C4688B06A46144B5361144B936103234D
:10513C0042F8103F0C4800234FF4C851FCF7B2F86A
:10514C00A5467868FDF768FDC9E7D9F80130C4F8C1
:10515C000130B388A4F8053040462570FDF75CFD9E
:10516C000120BDE7A4640108D43E0108BD64010818
:10517C00B6560108B0560108DB640108C665010883
:10518C0007B56846FFF7A0FF044BD87118B1694604
:10519C000020FFF711FF03B05DF804FB00000020B6
:1051AC002DE9F0410D4617461C46064650B14BB151
:1051BC000A03037811D56D0708D52E4A2E48012114
:1051CC000CF014FA6FF01500BDE8F0810CF01DFA2C
:1051DC000028F9D101232370F6E7A9072ED0274820
:1051EC000FB1AA0608D4C3EBC302825C012A13D008
:1051FC0002B922700020E7E790F8D820510635D587
:10520C00C3EBC302825C012A06D002B92270237858
:10521C0043F002032370EDE74FF00108072111FB67
:10522C000381014430460CF0E8F90028CCD184F815
:10523C000080002FDED0AB06DCD5E8E76A0712D57C
:10524C000E49C3EBC3028E5C012E09D1072212FB5F
:10525C00036319440CF0D1F90028B5D12670EAE7A4
:10526C00002EE8D1FAE70CF0D0F9B3E76FF0850027
:10527C00AAE700BF00650108D43E01080000002029
:10528C002DE9F843214DEB7900AF23B100242046E2
:10529C00BD46BDE8F8836E4688B06A461C49DFF807
:1052AC00749051614FF00308C2F8189042F8108FB7
:1052BC0019484FF4C851FBF7F5FFB546FFF760FFEF
:1052CC00044628B1154A144801210CF08FF9DEE789
:1052DC00EB79002BDAD188B06A46114BC2E905395B
:1052EC0042F8108F4FF4C85103460B48FBF7DAFF16
:1052FC00B5460CF0A5F904460028E3D1681CFFF76D
:10530C00FFFD04460028C2D0064ADCE7000000205E
:10531C001F650108BB650108D43E01084B650108F7
:10532C006A6501089E6501082DE9F74F8A460190D0
:10533C004FF0FF314FF0FF30FEF786FC044600289B
:10534C004ED020210C300BF098FF202200218046FB
:10535C004FF000090EF09EFADAF8007008F1010B1C
:10536C004D46DAF80420914509D3019888F800508D
:10537C000022214603B0BDE8F04FFEF793BE7A78C9
:10538C0097F800C0A81C81181F2915D9BCF1090F6A
:10539C00C0F11F0201D1002A0CDC134A1348012171
:1053AC000BF08BFD2046FDF737FC6FF0150003B0BA
:1053BC00BDE8F08F4FF0080CD6B2711C0BF805103D
:1053CC00691CC9B202360BF801C079685BFA80F02F
:1053DC002E440EF051FAF5B209F101090837C0E775
:1053EC006FF06800E3E700BFF6650108943E010822
:1053FC00F8B545686905064635D4046914B115F04D
:10540C00030330D0194F3078FB7983422BD9C0EB92
:10541C00C0001749072238440EF044FAA8B115F021
:10542C00030306D197F87020082A02D8B2689F2A85
:10543C0019D915F0300F09D0ACB1EA060AD405F42D
:10544C006035B5F5603018BF0120F8BDEB0601D40E
:10545C00002CF4D1D6E902239A4204D81F2A02D98F
:10546C00B3F5804FEBD90020EFE700BF0000002020
:10547C00A9560108F7B5CDE90001694642F20800CA
:10548C009DF8207016461D46FFF74EFF044668B97E
:10549C007FB9BFF35B8F0C4B53E8001F41F0040145
:1054AC0043E80012002AF7D1BFF35B8F204603B00C
:1054BC00F0BD694642F20900CDE90065FFF734FF03
:1054CC000028E6D00446F1E728000020F8B5044691
:1054DC00164B14F8097B83F86F7005460E460722AD
:1054EC00134920460EF0DEF970B91249384601F026
:1054FC002DFB044610B96FF00B00F8BD052100F030
:10550C0075FD34600020F8E72146384601F062FB57
:10551C0040B92146287801F019FB04460028EAD04E
:10552C000621ECE76FF01500E7E700BF0000002054
:10553C00A9560108A256010800487047180000201F
:10554C002DE9F04F8D4ED0F810B089B09A4600235B
:10555C00BBEB03040546304618BF012403930CF043
:10556C0082F80F464107914640F1EA802846FFF742
:10557C003FFF60B96FF015043846002340F201116B
:10558C00994540F0E680204609B0BDE8F08F2846EA
:10559C000CF052F880460028ECD0A6F1A8000CF0D4
:1055AC0062F8C205C0F3002300F1CD80CDE90533CC
:1055BC00CDF81B30AB686868ADF81030EB68ADF80F
:1055CC0012300CF041F88DF81D00BFF35B8F56E8DC
:1055DC00003F23F4807346E80032002AF7D1BFF372
:1055EC005B8F2A7806F8B82C06F8612C696822467D
:1055FC000DF11503A6F1B800FFF7D2FD0446002803
:10560C00BAD1A6F1AF03BBF1000F11D02A69116812
:10561C0046F8AF1C9188998092799A716B689E07B5
:10562C004AD1980502D4BAF1000F59D002230BE0ED
:10563C00534A116846F8AF1C9188927999809A71F7
:10564C006B689C07EDD05B468DF814304FF0FF3043
:10565C004FF0FF31FEF7F8FA0446002876D00F22FF
:10566C0004A90C300BF00FFE2146002242F206007A
:10567C00FEF718FD044600287FF47EAFBBF1000F47
:10568C0032D06B6899073BD13E4801210CF00CF8E5
:10569C00044600283CD03C4A3C4801210BF00DFC50
:1056AC00039D002D3FF468AF2846002100F09EFCBE
:1056BC00284600F003FC5FE713F0100F0CBF01232A
:1056CC0004238DF814302B691A68CDF816209A88AB
:1056DC00ADF81A209B798DF81C304FF00008B5E717
:1056EC0003238DF81430F8E7129BCDF80080524656
:1056FC0049463846FFF7BEFE04460028C1D03BE7BA
:10570C00204803A9FFF7E2FE04460028BCD033E78B
:10571C00039808B100F0D2FB6A681D4812F003022E
:10572C0018BF012209210BF0A4FF42460A210BF0FD
:10573C00A0FF6A680C21C2F380020BF09AFF1BE7F2
:10574C006FF00A0418E76FF0770415E76FF0680440
:10575C0012E702888A4204D1426812B11278D20749
:10576C0002D4013308300BE70A490B480DF021FE37
:10577C000A4A0948002309F027FD04E7D00000205D
:10578C00A9560108180000200F660108943E010874
:10579C0028000020295800083000002080A90300B0
:1057AC0010B518480BF0A6FF17480BF05CFF03462A
:1057BC00DA05C0F3002023D513480BF054FF830502
:1057CC0015D51249124807220EF06CF81149034600
:1057DC00087E93B91049052201F032FA044630B123
:1057EC000021417200F002FC204600F067FBBDE88E
:1057FC001040044800210BF057BF06222131EBE783
:10580C0010BD00BF1800002028000020A956010878
:10581C002100002000000020A256010810B5FFF75F
:10582C00BFFF034630B1044A0448BDE810400221D2
:10583C000BF04CBB10BD00BF2A660108943E01085A
:10584C0008B508F071FE38B1044A0346012104483A
:10585C000BF03CFB6FF0040008BD00BF5066010864
:10586C00CC3E010808B50DF03FFB38B1044A0346A5
:10587C00012104480BF02AFB6FF0040008BD00BFA7
:10588C006C660108CC3E010870B50C4B1C680546D3
:10589C0044B154F8183C183C13B1697A284698471F
:1058AC00A469F5E7064C074EB44200D370BD2368DB
:1058BC0013B1697A284698471C34F5E7D8110020B3
:1058CC007C3E01087C3E0108B0B500AF6D4688B047
:1058DC0004466A460B4B53610B4BC2E9063004235A
:1058EC0042F8103F09484FF404510BF018FF002305
:1058FC00C4E901330648AD4621460DF071FCBD46A6
:10590C00B0BD00BF9B6601084E6F0108AC3E01089C
:10591C00800400202DE9F04F83B06E4600AF88B0B4
:10592C0004466A46314B324D53610423C2E906509A
:10593C004FF4045142F8103F2E48DFF8BC90DFF8CA
:10594C00BC800BF0ECFEB5462A4EEFF3118310220F
:10595C0082F31288BFF36F8FD4F81CB0BBF1000F29
:10596C0007D183F31188BFF36F8F0C37BD46BDE8A9
:10597C00F08F216ADBF80020E2618B4508BF2262C0
:10598C0083F31188BFF36F8FEA468AB0DBE901130A
:10599C006A4653620623C2E907B1C2E905954FF482
:1059AC004451304642F8103F0BF0B9FED546DBE9C6
:1059BC0001A158467960FFF787FFBAF1000F03D0B9
:1059CC00796800222046D047EA4688B06A4603230D
:1059DC00C2E905854FF4C85142F8103F30460BF030
:1059EC009EFED546FEF7D4FAAFE700BFA2660108CB
:1059FC00566F0108AC3E0108AE660108CB66010883
:105A0C002DE9F84300AFE9468CB0D1E901680546B1
:105A1C000C466A460E4B53610E4BC2F82880C2E905
:105A2C0006300723C2E908160B4842F8103F4FF422
:105A3C0064510BF074FE2046CD46FFF745FF26B1AE
:105A4C006FF06D0241462846B047BD46BDE8F8836D
:105A5C00DC660108926E0108AC3E010898B500AFF7
:105A6C000446FDF739F80D4901EB00112046FDF70E
:105A7C00B9FA6C4688B06A46094B5361094B93617D
:105A8C00032342F8103F08484FF4C8510BF047FE6F
:105A9C00A546FEF77DFABD4698BD00BFA4110020B7
:105AAC00CD510108686F0108AC3E0108F8B500AF94
:105ABC006E4688B004466A462A4B2B4D536104232C
:105ACC00C2E906504FF4045142F8103F27480BF03E
