:020000040800F2
:1000000080420020E137000899380108CD37000808
:10001000CD370008CD370008CD37000800000000BC
:10002000000000000000000000000000A1380008EF
:10003000CD370008000000004138000889F20008B0
:100040006D3A00086D3A00086D3A00086D3A0008F4
:100050006D3A00086D3A00086D3A00086D3A0008E4
:100060006D3A00086D3A00086D3A00086D3A0008D4
:100070006D3A00086D3A00086D3A00086D3A0008C4
:100080006D3A00086D3A00086D3A00086D3A0008B4
:100090006D3A00086D3A00086D3A00086D3A0008A4
:1000A0006D3A00086D3A00086D3A00086D3A000894
:1000B0006D3A00086D3A00086D3A00086D3A000884
:1000C0006D3A00086D3A00086D3A00086D3A000874
:1000D0006D3A00086D3A00086D3A00086D3A000864
:1000E0006D3A00086D3A00086D3A00086D3A000854
:1000F0006D3A00086D3A00086D3A00086D3A000844
:100100006D3A00086D3A00086D3A00086D3A000833
:100110006D3A00086D3A00086D3A00086D3A000823
:100120006D3A00086D3A00086D3A00086D3A000813
:0C0130006D3A00086D3A00086D3A0008B6
:10013C0081F0004102E000BF83F0004330B54FEA8C
:10014C0041044FEA430594EA050F08BF90EA020FF9
:10015C001FBF54EA000C55EA020C7FEA645C7FEA8C
:10016C00655C00F0E2804FEA5454D4EB5555B8BFAF
:10017C006D420CDD2C4480EA020281EA030382EA20
:10018C00000083EA010180EA020281EA0303362DB2
:10019C0088BF30BD11F0004F4FEA01314FF4801C85
:1001AC004CEA113102D0404261EB410113F0004F97
:1001BC004FEA03334CEA133302D0524263EB43034E
:1001CC0094EA050F00F0A780A4F10104D5F1200EEC
:1001DC000DDB02FA0EFC22FA05F2801841F1000147
:1001EC0003FA0EF2801843FA05F359410EE0A5F11B
:1001FC0020050EF1200E012A03FA0EFC28BF4CF04C
:10020C00020C43FA05F3C01851EBE37101F0004501
:10021C0007D54FF0000EDCF1000C7EEB00006EEB0E
:10022C000101B1F5801F1BD3B1F5001F0CD3490898
:10023C005FEA30004FEA3C0C04F101044FEA4452EF
:10024C0012F5800F80F09A80BCF1004F08BF5FEA76
:10025C00500C50F1000041EB045141EA050130BD56
:10026C005FEA4C0C404141EB0101013C28BFB1F568
:10027C00801FE9D291F0000F04BF01460020B1FAB3
:10028C0081F308BF2033A3F10B03B3F120020CDA86
:10029C000C3208DD02F1140CC2F10C0201FA0CF064
:1002AC0021FA02F10CE002F11402D8BFC2F1200CC9
:1002BC0001FA02F120FA0CFCDCBF41EA0C0190407F
:1002CC00E41AA2BF01EB0451294330BD6FEA0404C8
:1002DC001F3C1CDA0C340EDC04F11404C4F12002B3
:1002EC0020FA04F001FA02F340EA030021FA04F3C5
:1002FC0045EA030130BDC4F10C04C4F1200220FA1C
:10030C0002F001FA04F340EA0300294630BD21FA59
:10031C0004F0294630BD94F0000F83F4801306BF1F
:10032C0081F480110134013D4EE77FEA645C18BF13
:10033C007FEA655C29D094EA050F08BF90EA020FAA
:10034C0005D054EA000C04BF1946104630BD91EAA2
:10035C00030F1EBF0021002030BD5FEA545C05D1A5
:10036C004000494128BF41F0004130BD14F58004E4
:10037C003CBF01F5801130BD01F0004545F0FE4158
:10038C0041F470014FF0000030BD7FEA645C1ABF8D
:10039C00194610467FEA655C1CBF0B46024650EAC4
:1003AC00013406BF52EA033591EA030F41F40021F0
:1003BC0030BD00BF90F0000F04BF0021704730B576
:1003CC004FF4806404F132044FF000054FF000014B
:1003DC0050E700BF90F0000F04BF0021704730B50C
:1003EC004FF4806404F1320410F0004548BF4042E1
:1003FC004FF000013EE700BF42004FEAE2014FEA36
:10040C0031014FEA02701FBF12F07F4393F07F4F10
:10041C0081F06051704732F07F4208BF704793F013
:10042C007F4F04BF41F40021704730B54FF4607426
:10043C0001F0004521F000411CE700BF50EA010229
:10044C0008BF704730B54FF000050AE050EA0102D2
:10045C0008BF704730B511F0004502D5404261EB42
:10046C0041014FF4806404F132045FEA915C3FF483
:10047C00D8AE4FF003025FEADC0C18BF03325FEA20
:10048C00DC0C18BF033202EBDC02C2F1200300FAD1
:10049C0003FC20FA02F001FA03FE40EA0E0021FAF6
:1004AC0002F11444BDE600BF70B54FF0FF0C4CF4E4
:1004BC00E06C1CEA11541DBF1CEA135594EA0C0F96
:1004CC0095EA0C0F00F0DEF82C4481EA030621EAD1
:1004DC004C5123EA4C5350EA013518BF52EA03350C
:1004EC0041F4801143F4801338D0A0FB02CE4FF0BE
:1004FC000005E1FB02E506F00042E0FB03E54FF0EE
:10050C000006E1FB03569CF0000F18BF4EF0010EE5
:10051C00A4F1FF04B6F5007F64F5407404D25FEAE1
:10052C004E0E6D4146EB060642EAC62141EA555194
:10053C004FEAC52040EA5E504FEACE2EB4F1FD0CD6
:10054C0088BFBCF5E06F1ED8BEF1004F08BF5FEA54
:10055C00500E50F1000041EB045170BD06F0004606
:10056C0046EA010140EA020081EA0301B4EB5C04B3
:10057C00C2BFD4EB0C0541EA045170BD41F48011AB
:10058C004FF0000E013C00F3AB8014F1360FDEBFD0
:10059C00002001F0004170BDC4F10004203C35DAAC
:1005AC000C341BDC04F11404C4F1200500FA05F32F
:1005BC0020FA04F001FA05F240EA020001F00042D0
:1005CC0021F0004110EBD37021FA04F642EB060146
:1005DC005EEA430E08BF20EAD37070BDC4F10C0470
:1005EC00C4F1200500FA04F320FA05F001FA04F234
:1005FC0040EA020001F0004110EBD37041F1000120
:10060C005EEA430E08BF20EAD37070BDC4F120052A
:10061C0000FA05F24EEA020E20FA04F301FA05F292
:10062C0043EA020321FA04F001F0004121FA04F23A
:10063C0020EA020000EBD3705EEA430E08BF20EA0A
:10064C00D37070BD94F0000F0FD101F00046400044
:10065C0041EB010111F4801F08BF013CF7D041EAC6
:10066C00060195F0000F18BF704703F000465200CA
:10067C0043EB030313F4801F08BF013DF7D043EA9B
:10068C000603704794EA0C0F0CEA135518BF95EA51
:10069C000C0F0CD050EA410618BF52EA4306D1D1D8
:1006AC0081EA030101F000414FF0000070BD50EAF7
:1006BC00410606BF1046194652EA430619D094EA81
:1006CC000C0F02D150EA013613D195EA0C0F05D16B
:1006DC0052EA03361CBF104619460AD181EA0301BF
:1006EC0001F0004141F0FE4141F470014FF0000077
:1006FC0070BD41F0FE4141F4780170BD70B54FF012
:10070C00FF0C4CF4E06C1CEA11541DBF1CEA135591
:10071C0094EA0C0F95EA0C0F00F0A7F8A4EB050473
:10072C0081EA030E52EA03354FEA013100F088806A
:10073C004FEA03334FF0805545EA131343EA126333
:10074C004FEA022245EA111545EA10654FEA0026E8
:10075C000EF000419D4208BF964244F1FD0404F5A1
:10076C00407402D25B084FEA3202B61A65EB0305FD
:10077C005B084FEA32024FF480104FF4002CB6EBBA
:10078C00020E75EB030E22BFB61A754640EA0C003A
:10079C005B084FEA3202B6EB020E75EB030E22BF7A
:1007AC00B61A754640EA5C005B084FEA3202B6EBBB
:1007BC00020E75EB030E22BFB61A754640EA9C007A
:1007CC005B084FEA3202B6EB020E75EB030E22BF4A
:1007DC00B61A754640EADC0055EA060E18D04FEA08
:1007EC00051545EA16754FEA06164FEAC30343EAA8
:1007FC0052734FEAC2025FEA1C1CC0D111F4801F75
:10080C000BD141EA00014FF000004FF0004CB6E76D
:10081C0011F4801F04BF01430020B4F1FD0C88BF0C
:10082C00BCF5E06F3FF6AFAEB5EB030C04BFB6EB17
:10083C00020C5FEA500C50F1000041EB045170BD0A
:10084C000EF0004E4EEA113114EB5C04C2BFD4EB37
:10085C000C0541EA045170BD41F480114FF0000EBB
:10086C00013C90E645EA060E8DE60CEA135594EA37
:10087C000C0F08BF95EA0C0F3FF43BAF94EA0C0F3A
:10088C000AD150EA01347FF434AF95EA0C0F7FF4AF
:10089C0025AF104619462CE795EA0C0F06D152EA03
:1008AC0003353FF4FDAE1046194622E750EA4106E7
:1008BC0018BF52EA43067FF4C5AE50EA41047FF4F8
:1008CC000DAF52EA43057FF4EBAE12E74FEA41025B
:1008DC00B2F1E04324BFB3F5001CDCF1FE5C0DD992
:1008EC0001F0004C4FEAC0024CEA5070B2F1004FDC
:1008FC0040EB830008BF20F00100704711F0804FDF
:10090C0021D113F13872BCBF01F00040704741F4A3
:10091C0080114FEA5252C2F11802C2F1200C10FAA7
:10092C000CF320FA02F018BF40F001004FEAC1238B
:10093C004FEAD32303FA0CFC40EA0C0023FA02F32F
:10094C004FEA4303CCE77FEA625307D150EA013305
:10095C001EBF4FF0FE4040F44000704701F00040D5
:10096C0040F0FE4040F40000704700BF80F00040B3
:10097C0002E000BF81F0004142001FBF5FEA41036B
:10098C0092EA030F7FEA226C7FEA236C6AD04FEA6B
:10099C001262D2EB1363C1BFD218414048404140B0
:1009AC00B8BF5B42192B88BF704710F0004F40F462
:1009BC00000020F07F4018BF404211F0004F41F47E
:1009CC00000121F07F4118BF494292EA030F3FD04A
:1009DC00A2F1010241FA03FC10EB0C00C3F120035D
:1009EC0001FA03F100F0004302D5494260EB4000EC
:1009FC00B0F5000F13D3B0F1807F06D340084FEA57
:100A0C00310102F10102FE2A51D2B1F1004F40EB4B
:100A1C00C25008BF20F0010040EA030070474900B3
:100A2C0040EB0000013A28BFB0F5000FEDD2B0FA50
:100A3C0080FCACF1080CB2EB0C0200FA0CF0AABF73
:100A4C0000EBC25052421843BCBFD0401843704711
:100A5C0092F0000F81F4000106BF80F40000013217
:100A6C00013BB5E74FEA41037FEA226C18BF7FEAEE
:100A7C00236C21D092EA030F04D092F0000F08BF30
:100A8C000846704790EA010F1CBF0020704712F017
:100A9C007F4F04D1400028BF40F00040704712F156
:100AAC0000723CBF00F50000704700F0004343F0BB
:100ABC00FE4040F4000070477FEA226216BF0846F1
:100ACC007FEA23630146420206BF5FEA412390EAB4
:100ADC00010F40F4800070474FF0000304E000BFAA
:100AEC0010F0004348BF40425FEA000C08BF70475B
:100AFC0043F0964301464FF000001CE050EA01021F
:100B0C0008BF70474FF000030AE000BF50EA010233
:100B1C0008BF704711F0004302D5404261EB410120
:100B2C005FEA010C02BF84460146002043F0B64345
:100B3C0008BFA3F18053A3F50003BCFA8CF2083A6A
:100B4C00A3EBC25310DB01FA02FC634400FA02FC73
:100B5C00C2F12002BCF1004F20FA02F243EB02007A
:100B6C0008BF20F00100704702F1200201FA02FCDC
:100B7C00C2F1200250EA4C0021FA02F243EB0200CF
:100B8C0008BF20EADC7070474FF0FF0C1CEAD05213
:100B9C001EBF1CEAD15392EA0C0F93EA0C0F6FD0D4
:100BAC001A4480EA010C400218BF5FEA41211ED0B2
:100BBC004FF0006343EA501043EA5111A0FB01319E
:100BCC000CF00040B1F5000F3EBF490041EAD37173
:100BDC005B0040EA010062F17F02FD2A1DD8B3F1EF
:100BEC00004F40EBC25008BF20F00100704790F05E
:100BFC00000F0CF0004C08BF49024CEA502040EAB0
:100C0C0051207F3AC2BFD2F1FF0340EAC250704775
:100C1C0040F400004FF00003013A5DDC12F1190FB3
:100C2C00DCBF00F000407047C2F10002410021FA25
:100C3C0002F1C2F1200200FA02FC5FEA310040F13D
:100C4C00000053EA4C0308BF20EADC70704792F0B6
:100C5C00000F00F0004C02BF400010F4000F013AEE
:100C6C00F9D040EA0C0093F0000F01F0004C02BFE9
:100C7C00490011F4000F013BF9D041EA0C018FE758
:100C8C000CEAD15392EA0C0F18BF93EA0C0F0AD05E
:100C9C0030F0004C18BF31F0004CD8D180EA010084
:100CAC0000F00040704790F0000F17BF90F0004F1D
:100CBC00084691F0000F91F0004F14D092EA0C0FFF
:100CCC0001D142020FD193EA0C0F03D14B0218BF92
:100CDC00084608D180EA010000F0004040F0FE40D8
:100CEC0040F40000704740F0FE4040F44000704774
:100CFC004FF0FF0C1CEAD0521EBF1CEAD15392EAF3
:100D0C000C0F93EA0C0F69D0A2EB030280EA010CE2
:100D1C0049024FEA402037D04FF0805343EA11117B
:100D2C0043EA10130CF000408B4238BF5B0042F1D9
:100D3C007D024FF4000C8B4224BF5B1A40EA0C007E
:100D4C00B3EB510F24BFA3EB510340EA5C00B3EBB0
:100D5C00910F24BFA3EB910340EA9C00B3EBD10F9E
:100D6C0024BFA3EBD10340EADC001B0118BF5FEAF0
:100D7C001C1CE0D1FD2A3FF650AF8B4240EBC25019
:100D8C0008BF20F0010070470CF0004C4CEA5020DA
:100D9C007F32C2BFD2F1FF0340EAC250704740F429
:100DAC0000004FF00003013A37E792F0000F00F01B
:100DBC00004C02BF400010F4000F013AF9D040EA99
:100DCC000C0093F0000F01F0004C02BF490011F42D
:100DDC00000F013BF9D041EA0C0195E70CEAD15325
:100DEC0092EA0C0F08D142027FF47DAF93EA0C0F0C
:100DFC007FF470AF084676E793EA0C0F04D14B02F0
:100E0C003FF44CAF08466EE730F0004C18BF31F0A1
:100E1C00004CCAD130F000427FF45CAF31F000439B
:100E2C007FF43CAF5FE700BF4FF0FF3C06E000BF34
:100E3C004FF0010C02E000BF4FF0010C4DF804CD57
:100E4C004FEA40024FEA41037FEA226C18BF7FEA67
:100E5C00236C11D001B052EA530C18BF90EA010F69
:100E6C0058BFB2EB030088BFC81738BF6FEAE170F8
:100E7C0018BF40F0010070477FEA226C02D15FEA94
:100E8C00402C05D17FEA236CE4D15FEA412CE1D000
:100E9C005DF8040B704700BF844608466146FFE7C7
:100EAC000FB5FFF7C9FF002848BF10F1000F0FBDA9
:100EBC004DF808EDFFF7F4FF0CBF012000205DF8A2
:100ECC0008FB00BF4DF808EDFFF7EAFF34BF012027
:100EDC0000205DF808FB00BF4DF808EDFFF7E0FFC0
:100EEC0094BF012000205DF808FB00BF4DF808ED11
:100EFC00FFF7D2FF94BF012000205DF808FB00BF74
:100F0C004DF808EDFFF7C8FF34BF012000205DF855
:100F1C0008FB00BF4FEA4002B2F1FE4F0FD34FF077
:100F2C009E03B3EB12620DD94FEA002343F000434A
:100F3C0010F0004F23FA02F018BF404270474FF0F8
:100F4C000000704712F1610F01D1420205D110F07F
:100F5C00004008BF6FF0004070474FF00000704732
:100F6C0042000ED2B2F1FE4F0BD34FF09E03B3EB07
:100F7C00126209D44FEA002343F0004323FA02F033
:100F8C0070474FF00000704712F1610F01D142021F
:100F9C0002D14FF0FF3070474FF00000704700BF98
:100FAC007BB972B90029BEBF00204FF0004106E0AA
:100FBC0008BF00281CBF6FF000414FF0FF3000F05D
:100FCC0077B8ADF1080C6DE904CE002909DB002BD4
:100FDC001ADB00F0C5F8DDF804E0DDE9022304B00B
:100FEC007047404261EB4101002B1BDB00F0B8F86D
:100FFC00DDF804E0DDE9022304B0404261EB41017D
:10100C00524263EB43037047524263EB430300F0DD
:10101C00A7F8DDF804E0DDE9022304B0404261EBFF
:10102C0041017047524263EB430300F099F8DDF83D
:10103C0004E0DDE9022304B0524263EB4303704742
:10104C0053B94AB9002908BF00281CBF4FF0FF3123
:10105C004FF0FF3000F02CB8ADF1080C6DE904CE68
:10106C0000F07EF8DDF804E0DDE9022304B07047FF
:10107C00D0B5FFF7C1F90C4B002206460F46FFF71F
:10108C0013FA00F017F80446FFF794F9074B002207
:10109C00FFF70AFA02460B4630463946FFF74CF882
:1010AC0000F008F82146D0BD0000F03D0000F041F2
:1010BC00704700BF4A0011D212F5001211D20DD5A3
:1010CC006FF47873B3EB62520ED44FEAC12343F042
:1010DC00004343EA505323FA02F070474FF00000EC
:1010EC00704750EA013002D14FF0FF3070474FF09B
:1010FC0000007047034611F8012B03F8012B002A5E
:10110C00F9D17047034613F8012B002AFBD1181AAA
:10111C0001387047430803F05533C01A00F03333DD
:10112C00800800F03330184400EB10104FF00133FE
:10113C0000F00F305843000E704710B500210446E4
:10114C00FFF7C0FE20B92046BDE81040FFF790BF66
:10115C0004F10040FFF78CFF404261EB410110BDF0
:10116C002DE9F04786468C460846089E154674467F
:10117C001946002B40F0C2808542B2FA82F245D962
:10118C004AB1C2F1200300FA02FC2EFA03F3954097
:10119C0043EA0C0C94404FEA154EA8B2BCFBFEF887
:1011AC00230C0EFB18CC08FB00F943EA0C439945C1
:1011BC0028D9EB1808F1FF3704D2994502D9A8F1C8
:1011CC0002072B44A3EB0903A4B2B3FBFEFC0EFBFA
:1011DC001C330CFB00F044EA0344A04214D92C1934
:1011EC000CF1FF3304D2A04202D9ACF102032C441F
:1011FC00241A43EA07401EB1D440002334607360C4
:10120C00BDE8F0874746DDE76346F1E792BB431B39
:10121C0001214FEA154EAFB2B3FBFEFC200C0EFBC6
:10122C001C330CFB07F840EA0343984562D9EB18D2
:10123C000CF1FF3004D2984502D9ACF102002B44DA
:10124C00A3EB0803A4B2B3FBFEFC0EFB1C330CFB9C
:10125C0007F744EA0344A7424ED92C190CF1FF338B
:10126C0004D2A74202D9ACF102032C44E41B43EA9A
:10127C000040C0E7C2F1200320FA03F195409040F2
:10128C002EFA03F303434FEA154EAFB2B1FBFEFC4B
:10129C000EFB1C10190C0CFB07F841EA00418845A9
:1012AC0004FA02F422D969180CF1FF3004D28845F3
:1012BC0002D9ACF102002944A1EB08019BB2B1FBAD
:1012CC00FEFC0EFB1C110CFB07F743EA01439F428B
:1012DC000ED9EB180CF1FF3104D29F4202D9ACF1BC
:1012EC0002012B44DB1B41EA004192E76046E3E735
:1012FC006146F7E76046A3E76346B7E7834206D942
:10130C0016B9002108467BE7C6E900E0F9E7B3FA15
:10131C0083F78FB9834201D3724508D8BEEB020420
:10132C0060EB030301209C461EB9002168E7384698
:10133C00FAE7C6E9004CF8E7C7F1200CBB4022FAEB
:10134C000CF41C432EFA0CF120FA0CF3B8400143B8
:10135C004FEA14490EFA07F5B3FBF9F81FFA84FEAD
:10136C0009FB18300B0C08FB0EFA43EA00439A45B4
:10137C0002FA07F240D9E31808F1FF3004D29A457B
:10138C0002D9A8F102002344A3EB0A0389B2B3FBF0
:10139C00F9F809FB183308FB0EFE41EA03418E45B0
:1013AC002CD9611808F1FF3304D28E4502D9A8F16B
:1013BC000203214443EA0040A0FB0298A1EB0E017A
:1013CC004145CE46434602D306D14D4504D2B9EB36
:1013DC00020E68EB04030138002EA6D0B5EB0E020A
:1013EC0061EB030101FA0CFC22FA07F34CEA03034C
:1013FC00F940C6E9003198E74046C5E74346D9E7CE
:10140C002DE9F04F87B000AF654A6648032112F012
:10141C0004F9654814F031FC58B9644A614801215B
:10142C0012F0FBF86FF0120420461C37BD46BDE8E5
:10143C00F08F5F4A5B48032112F0EFF800F08EF951
:10144C00044630B15B4A03460121564812F0EEF8CF
:10145C00EAE7594A5348594EDFF86481DFF8649142
:10146C00032112F0DAF8504DAC684321E3682846AA
:10147C009847031E0ADA544A4A48012112F0D6F85A
:10148C004FF44870002114F020FFECE70D21236984
:10149C0007F10802284698470346002872D1786065
:1014AC00F868FFF71DFB3146FFF722FC0446B868CD
:1014BC00FFF716FB01462046FFF75EFAEB4688B0B5
:1014CC0082466C46414A6261FEF796FF2246C4E9A9
:1014DC000601042142F8101F32487B684FF4035177
:1014EC0001F0E2F85046DD4600F07EF9002804DAFF
:1014FC00374A2C48022112F090F8AB682A481B6935
:10150C0007F110020E2198478346002840D17869D4
:10151C00FFF7E6FA3146FFF7EBFB04463869FFF7B5
:10152C00DFFA01462046FFF727FA4146FFF72CFB6E
:10153C00FFF716FDEA468AB005466C46254BC4E912
:10154C000530FFF7C9FA4946FFF7D2FBFEF754FF07
:10155C0022460623C4E9080142F8103F11485B46B5
:10156C004FF4435101F0A0F82846D54600F074F929
:10157C00002804DA184A0B48022112F04EF849F6FA
:10158C0040407FE7154A0748012112F04FF8B4E7B5
:10159C00134A03460121034812F048F8EFE700BF55
:1015AC00248101082C6E0108A869010844810108F6
:1015BC005C81010883810108AD8101080024744914
:1015CC0000007A440000C842C5810108E18101088D
:1015DC00F58101083D820108588201081682010834
:1015EC007682010810B5074C86B024680594042453
:1015FC00029405AC0194BDF8204000940AF040F927
:10160C0006B010BDCC12002010B5084C86B0248852
:10161C00ADF81640022402940DF116040194BDF8A5
:10162C00204000940AF02CF906B010BD701B00206D
:10163C0010B50B46084C0948094A032111F0F6FF76
:10164C00206818B105F03CFE00232360054A0023F6
:10165C001370054A137010BDC81200207C6D010870
:10166C009A820108871B0020861B002080B5012967
:10167C000E4B0CBF012200221A700D4A0D4B00AF0D
:10168C0088B008BF13466A460B49C2E905134FF4EC
:10169C0000739383094B42F8103F094800234FF421
:1016AC00E65101F001F8BD4680BD00BF861B00204D
:1016BC0055C10108B7820108C0820108030000016E
:1016CC007C6D010880B501290E4B0CBF0122002254
:1016DC001A700D4A0D4B00AF88B008BF13466A460E
:1016EC000B49C2E905134FF400739383094B42F87D
:1016FC00103F094800234FF4E65100F0D5FFBD46DA
:10170C0080BD00BF871B002055C10108B7820108AE
:10171C00D9820108030000017C6D010808B505F0B1
:10172C0095FD044B1860044A0448BDE808400321A9
:10173C0011F073BFC8120020F58201087C6D0108FE
:10174C000B4621B1034A0448012111F06FBFFFF78A
:10175C00E5BF00BFFF8201087C6D010830B589B080
:10176C00184A1948032111F058FF002004F020FA00
:10177C00044640B1154A03461348012111F056FFA7
:10178C00204609B030BD124D124A0F48032111F00A
:10179C0044FF0FCD03AC0FC42B68236001250E4B07
:1017AC000E490095022203A805F0CCF8044610B1AE
:1017BC000B4A0346E0E70B4A0348032111F02DFFC7
:1017CC00DEE700BF1E8301087C6D01083E83010823
:1017DC00A46E01085D8301081C6F0108246F0108C9
:1017EC00738301089883010830B51449144D87B0F0
:1017FC00FFF7CAF9FFF78EFB124B28801C78CCB18F
:10180C00114B1C68B4B118220021684614F0D8FEA4
:10181C000E4B2046CDE9013569460223ADF80C305C
:10182C000AF07EFD044628B1094A03460121094805
:10183C0011F0FCFE204607B030BD00BF0000C842CE
:10184C00701B0020871B0020C8120020486F010865
:10185C00B98301087C6D010830B5114B114D1C7812
:10186C00286087B0CCB1104B1C68B4B11822002191
:10187C00684614F0A5FE0D4B2046CDE901356946AE
:10188C000423ADF80C300AF04BFD044628B1084A8D
:10189C0003460121074811F0C9FE204607B030BDB0
:1018AC00861B0020CC120020C8120020706F01088B
:1018BC00EA8301087C6D01082DE9F04F91B0840793
:1018CC00009302F004030293C2F3C20303F1010379
:1018DC00DDF86880039205460E46059340F0BA8108
:1018EC00041D30B1072909D86FF01B0011B0BDE8F9
:1018FC00F08F01F007063444C6F10806009B4FF048
:10190C000009591E4FF0040A4FF0FF330193CDF834
:10191C0010904F46CB4653460DB1009A2260059865
:10192C00002800F3E8809848009A824203D3974835
:10193C008242C0F0E080039AA4EB050E92074FEAB6
:10194C009E0000F103810F2F00F2B180002D00F0FA
:10195C00058107F140020DEB020C019A0CF8200CEA
:10196C000CF8102C049801300490E7E07A285DD82C
:10197C004B280ED8472859D829282DD8252852D09D
:10198C0054D820287AD02338D0F1000B4BEB000B25
:10199C0074E04C382E2849D8DFE800F070484848ED
:1019AC0048484848484848484B48484848484848A8
:1019BC004859484B4B595959704B6D487048184B06
:1019CC00184848827F4B48484B487F0000204FF016
:1019DC00000B4FF0040A38E02A38C0B2012202FA98
:1019EC0000F010EA0E0F49D110F0625C2FD110EA12
:1019FC00020B43D06046013C5444B4FBFAF40AFB9E
:101A0C0004F4002D61D0A3EB050CA444B4453FF6BF
:101A1C006BAF002868D1042B47D158F8043B2360E6
:101A2C00043404232AE0019A013A01924FF0000B8E
:101A3C0024E011F8010C6C2834D111F8023C002080
:101A4C006C2B8346C5D14FF0080A5346D3E708F1F7
:101A5C00070828F007080734F8E802AB24F007045D
:101A6C0035B106982044B0423FF63EAFC4E900AB16
:101A7C0008344FF0000B4FF0080A534611F8010FD1
:101A8C00002878D0BBF1000F7FF470AF2528F5D17A
:101A9C00019B013301934FF0010B4FF0040AECE76B
:101AAC00584694E700208346A5E7082B02D06FF038
:101ABC0015001BE708F1070828F00708F8E80223CF
:101ACC00C4E9002308340823D8E768B9042B02D1F1
:101ADC0008F10408A4E7082BE9D108F1070828F05D
:101AEC00070808F10808EDE7059A013A059258F83D
:101AFC00042B009210E7039A900720D5A4EB050E57
:101B0C004FEA9E004FF0010CBEF5007FCFD20F2F95
:101B1C00CDD8F5B107F140020DEB020EC0B2019A1F
:101B2C000EF8200C0EF8102CBCF1000F3FF41AAF7D
:101B3C0060F07F000EF8200C09F101090137C5F1A6
:101B4C000802043406924FF6DA7E97E74FF0000C49
:101B5C00DAE7BCF1000F01D00136EFE7029802364C
:101B6C000028EBD10098CDE90631FFF7CBFADDE97F
:101B7C0006310644E2E7631BB3F5806F97D23DB99B
:101B8C00A6F10804E018B1E6E8660108A0C5010852
:101B9C00029A28609B082B709DF81030C2B1EB7034
:101BAC0085F80290B9F1000F05D008A80022C5F104
:101BBC00010C97420ED1C5F101030DF120084FF035
:101BCC00000A01930DF1300B574512D1601B8DE6C5
:101BDC006B70E5E710F8013B190608D50CEB040E09
:101BEC00B64503F07F033FF67FAE04F8013B0132AC
:101BFC00DFE7B9F1000F03D098F90020002A17DBBA
:101C0C00029BD3B11AF80B2004F8012B0022019B84
:101C1C0018191044B0423FF667AE98F8000004F86B
:101C2C00010B00990392204614F0BCFC039A144457
:101C3C000AF1010A08F10108C6E798F8002055F8E6
:101C4C0022300093029B45F822300098FFF75AFA95
:101C5C00421CDCE76FF00D0048E600BF2DE9F04FA9
:101C6C0097B000AF90F802A0D7F880B03B62CBF3EE
:101C7C00C0030446FA62BB61894641B945780078D5
:101C8C000AEB800020444D4517D8A0EB0409E378FB
:101C9C00FB61BAF1000F02D01BF0010F16D1FB69EA
:101CAC0053BBFB6A1BB13A6A4946204698474D46DE
:101CBC0028465C37BD46BDE8F08F461C3046FFF722
:101CCC0021FA0130304409F10109DCE7237862681C
:101CDC007A62FA6A9900796104EB8301002A40F078
:101CEC0000814D460E4601EB0A094FF000084E45A7
:101CFC004CD101EB0A0610E01BF0020FD1D0237877
:101D0C009A007A6162687A62FA6A04EB8301002AAB
:101D1C0077D14D4601EB0A0690461BF0050F0CBF20
:101D2C0002230123FB62FB6906EB430A0BF002035F
:101D3C00BB625645BCD016F8021B16F8013C54F891
:101D4C002390994B994502D3984B994536D3BB694F
:101D5C00002B40D0786A11F002F900283BD0E946FC
:101D6C008AB06A46924B53617B6AC2E906314FF4E2
:101D7C00007313848F4B42F8103F8F4800234FF4AD
:101D8C00125100F091FC023DCD46D2E716F8013B12
:101D9C00F96254F82300FFF7B5F9D7F88430F96AE3
:101DAC0001304BB1D7F8883098453EBFD7F8843016
:101DBC0023F8180008F10108054498E7BB6923B122
:101DCC00786A11F0CCF80028C9D11BF0010F05D1AD
:101DDC00FB6AED1AADE7BB6A002BAAD04846FFF7A9
:101DEC0091F9D7F8843053B1D7F8883098453FBF74
:101DFC00D7F88420431C22F8183008F10108054458
:101E0C0097E7BAF1000F72D01BF0040672D0D046DF
:101E1C00002607F1480052463B61B96214F0C2FB40
:101E2C00B96A3B6901EB0A02BA62FA69F9695200B4
:101E3C00FA60BA6A02EB41023A610BF00202BA6034
:101E4C003A69B96A8A4257D162787A621BF0020FFA
:101E5C0032440CBF4FEA580100211BF0010FD2B2E3
:101E6C0040F09F801BF0040F14BF40460020BB6164
:101E7C006270A070E1703A6A7969FB6A20469847F3
:101E8C00051EFFF615AFBB6923707B6A6370FB6997
:101E9C00E37041463A6AFB6A84F802A007F14800F5
:101EAC009847B0F10008C0F2BB807B693A6AA9EB95
:101EBC000A01C91AFB68C91AD7E90A03984700280E
:101ECC00C0F2B080A84408EB00054FF0000B07F1FE
:101EDC00380AB34572D300213A6AFB6A0846984720
:101EEC00E6E656464FF0000807F1380093E75646F1
:101EFC00D04697E7B04695E7BA6A12F8021BBA6269
:101F0C0012F8015C284A54F82500904202D3274A63
:101F1C0090421ED3BA6932B1786A7B6011F01FF817
:101F2C007B6800288CD1BA6802BB08F1280207F143
:101F3C00300C08F10100944407F1580252FA80F079
:101F4C0008F102080CF8101C5FFA88F800F8105C15
:101F5C0076E7BA693AB1786A7B6011F000F87B6871
:101F6C0000287FF46DAF1BF0010F09D006F1280299
:101F7C0007F13000711C161806F8205CCEB25FE732
:101F8C001BF0040F3FF45CAF08F1280207F130009E
:101F9C0008F1010102EB000808F8105C5FFA81F807
:101FAC004EE7002063E700BFE8660108A0C5010802
:101FBC008384010804000001DC6D01081BF80A3061
:101FCC0087F8373054F82390D7F884302BB3D7F8F0
:101FDC0088309B4521D2D7F8843033F81B803A6A7D
:101FEC00FB6A012107F13700984700281ADB0544EA
:101FFC00B8F1000F06D14846FFF784F800F101084C
:10200C001FFA88F83A6AFB6A414648469847002806
:10201C0008DB05440BF1010B5BE74FF00008DEE732
:10202C00454645E6054643E6014B1860704700BF40
:10203C006802002080B505460E46174698460FF0FC
:10204C0045FF034614F040FBDFF81890044649F8AE
:10205C000030424630463946A84754F8090001F092
:10206C00D3FB00BF08000000034A536823F00203AF
:10207C0053600020704700BF002004E0EFF3118094
:10208C00102383F31288BFF36F8F094B1A683AB988
:10209C00084A116841F4807111601168C905FCD5BA
:1020AC001A6801321A6080F31188BFF36F8F704782
:1020BC00D41200200004005810B5EFF31184102343
:1020CC0083F31288BFF36F8F134B1A68C2B9BFF337
:1020DC005B8F124B012253E8001F002903D143E808
:1020EC0000200028F7D1BFF35B8F04D10C4A0D48B8
:1020FC00022111F092FA84F31188BFF36F8F10BD97
:10210C00012A01BF08490A6822F480720A601A6821
:10211C00013A1A60EFE700BFD4120020D012002061
:10212C0042850108646E0108000400580C4B1A68C3
:10213C0042F400721A601A6842F480621A601A68DB
:10214C0042F480721A60074B074A1A60074AD2F8A9
:10215C00803023F0070343F00403C2F8803070474B
:10216C0000400058E004002000093D000004005825
:10217C002DE9F047DFF85880044607464FF0010977
:10218C0014B93846BDE8F08794FAA4F5B5FA85F58C
:10219C0009FA05F32E0108EB05156FEA030A24EA88
:1021AC0003042B7B002BEBD058F806301B694BB982
:1021BC004644042273682846196807EA0A0711F096
:1021CC00BCF9DDE7284698470028D9D1F0E700BFD5
:1021DC00946E010830B51049104889B0002214F0F3
:1021EC0050F90F4D0F4900220023CDE9062300249E
:1021FC000E23CDE90334CDE901440B4B00944FF48D
:10220C00407228460FF0B2FB0849284613F0ABFF8A
:10221C00204609B030BD00BF3D220008600C0020F4
:10222C00D8070020801C0020592500088385010850
:10223C0001480FF0D3B800BF400600202DE9F0474D
:10224C00804620480F4611F051F90646002832D03E
:10225C0000252846BDE8F087237B83B12368DB6823
:10226C000BB120469847636883F8069023681B6976
:10227C00CBB9636804221968204611F05EF9013667
:10228C0010345445E8D3B8F1000FE2D0002DDFD064
:10229C002846FFF76DFF0546002FF7D00021502090
:1022AC0014F013F8F2E7204698470028E1D009FA19
:1022BC0006F31D43E3E7044CDFF810A005464FF08E
:1022CC000109DEE7E8120020946E0108A46E0108F3
:1022DC00014B53F820007047D46F010808B5034632
:1022EC0008462BB1044A136000F074FC002008BDB2
:1022FC006FF01500FBE700BF6C02002010B5044C1A
:10230C00237813B903480FF069F80123237010BD2B
:10231C00881B00204006002010B504460B4811F025
:10232C00E5F85CB1BFF35B8F094B53E8001F013933
:10233C0043E80012002AF8D1BFF35B8F054814F074
:10234C00ACF80548BDE810400FF048B8E01200208A
:10235C00E4120020600C0020400600200020064BF8
:10236C00BFF35B8F014653E8000F43E80012002ACD
:10237C00F9D1BFF35B8F7047E012002070B5FFF707
:10238C00EDFF084C084E0546B44200D370BD63689F
:10239C005B792BB123685B6813B1294620469847BB
:1023AC001034F1E7946E0108A46E010810B5044CCA
:1023BC000449204610F019FF034B1C6010BD00BFF0
:1023CC0048050020C06F0108D81200200D4A0E48A5
:1023DC00002310B513700D4A13600D4A4FF47A7137
:1023EC001360FFF77BFFFFF7E1FF0A4B0A49184622
:1023FC008B4200D310BD1A1A5C6812110132227183
:10240C001033F5E7891B002013350108E01200207A
:10241C00E4120020946E0108A46E0108014600220B
:10242C000148002310F002BF48050020014810F0BD
:10243C009BBF00BF48050020024B0146186810F0F6
:10244C00EEBF00BFD8120020014811F023B800BF26
:10245C004805002070B5264B1878002847D0FFF7A8
:10246C00E5FF054600283FD1224B234C1B68002B6F
:10247C0013DD13F0BEFFD4E90032C00840EA41700E
:10248C00C01A4FEAD10140F2E93361EB02019842E4
:10249C0071F1000101D3FFF771FFD4E9003213F59C
:1024AC007A7342F10002C4E90032BDE87040FFF7D4
:1024BC00CBBF63685B7923B1236829461B68204630
:1024CC0098471034B442F4D32846FFF7B5FFBFF356
:1024DC005B8F0A4B53E8001F013943E80012002AB6
:1024EC00F8D1BFF35B8FBFE7054C064EEAE770BD32
:1024FC00881B0020E0120020580C0020E412002061
:10250C00946E0108A46E010870B50D4D297861B95F
:10251C000120FFF793FE0B4C0B4EB44206D3FFF792
:10252C0099FF0028FBD101232B7070BD63685B7988
:10253C001BB1236820469B6898471034EDE700BF19
:10254C00891B0020946E0108A46E010800212DE95E
:10255C00F0470846FFF772FE044658B34FF4C878AC
:10256C004FF0000914F0B0F81B4B1C4A1B581360B9
:10257C0033B11B4B1B68092B02DD1A480EF02EFFE2
:10258C00194FDFF860A0002544B12046FFF7F0FD9D
:10259C00044618B94FF0FF384FF0FF39FFF75AFFD8
:1025AC00064628B9B5B942464B4650460EF050FF88
:1025BC003546E9E74FF0FF384FF0FF39D2E72B688B
:1025CC009B691BB100221146284698471035BD4225
:1025DC00F5D3E8E7054DFAE708000000DC1200200F
:1025EC00E412002040060020A46E0108946E01083D
:1025FC0013B5184810F07AFF174B1B7873B1EFF333
:10260C001184102383F31288BFF36F8FFFF722FF1F
:10261C0084F31188BFF36F8F02B010BD0F4B1B6892
:10262C00002BF9D050B900220023CDE900230C482F
:10263C004FF4FA5200230FF03DFFEDE70928EBD1E0
:10264C00074813F02AFF074802B0BDE810400EF00F
:10265C00C5BE00BFE4120020891B0020DC12002044
:10266C00600C00204006002010B5064B1B68044689
:10267C0098472146A060044810F057FEBDE8104072
:10268C00FFF7B6BF6C02002048050020044A054B3A
:10269C009B1AB1EBD30F34BF52F8310000207047B6
:1026AC006C6D0108946E01082DE9F04F8FB004AFEA
:1026BC00C1F34A28B8600D4691467B600C0DB8F109
:1026CC00000F63D0002607F114034FF0040B4FF0FA
:1026DC000A0AC7F80C80C7E907667E620193CDF839
:1026EC0008B0CDF800A007F11C03F9683246484643
:1026FC00FFF7B4FAB0F5006F03461CD36C468AB0F2
:10270C00D9F8041004AB2648C3E9050140F2FF7167
:10271C00D9611A464FF400711984224B42F8103FCC
:10272C00214833464FF41251FFF7BEFFA5462C3714
:10273C00BD46BDE8F08FC0F30A0804F11700184439
:10274C0020F0070080083B60FFF768FE68F3532514
:10275C00044690B13B68154AC7E9083600F11001F0
:10276C0007F11403F961CDE900A3CDF808B0F968BD
:10277C0007F11C034846FFF771FA68F353257B6891
:10278C00B9682A46204610F0F8FED0E704F117008D
:10279C0020F007008008FFF741FE0446EDE700BF7C
:1027AC009885010804000001146E010859350108D0
:1027BC002DE9F04F87B0DDE91279DDE9105A0446B6
:1027CC00039193469846BFB1CDF800903B465246D4
:1027DC0010210020CDF81490FFF76EF8B0F5006FC3
:1027EC0006460AD3184A194840F2FF73022107B073
:1027FC00BDE8F04F10F01ABF3E4605F1170030440B
:10280C0020F0070004F007048008FFF707FE0BF028
:10281C00070BE40044EA8B1444EA462444EA0554CA
:10282C00054640B13FB1CDF800903B46524631468B
:10283C001030FFF741F8039943462246284607B06B
:10284C00BDE8F04F10F099BED7850108146E010851
:10285C00406820B1034BC01A40F3CF0070474FF0D3
:10286C00FF3070476C6D01080EB403B503AB014625
:10287C0053F8042B0448019301F078FA02B05DF888
:10288C0004EB03B0704700BF9B360108CA0605D4A1
:10289C008B064CBF02490349FFF7E6BF704700BFE8
:1028AC00108601080F8601082DE9F04F89B09B4670
:1028BC00149B06939DF84CA0159B0593169B179E95
:1028CC00049304460D469046BAF1000F00F09D802B
:1028DC0006F48073079310F02EFE06F002090246F0
:1028EC0000283ED091492046FFF7BEFF0746B9F1BC
:1028FC00000F08D016F0440F35D18D492A462046DA
:10290C00FFF7B2FF074406F0010353B1894B8A4924
:10291C0053F82A20894B2046002A08BF1A46FFF795
:10292C00A3FF06F48073002B49D006F00803002B9C
:10293C0063D1B8F1000F66D0814942462046FFF7BB
:10294C0093FF0546069B3D44002B6DD1049B002B49
:10295C0073D1F30700F1E48031462046FFF796FF70
:10296C00D8E00746C3E7774B18680028CAD0764BE7
:10297C004FF47A791B68B5FBF3F54FF46163B5FB43
:10298C00F0F100FB115509FB05F54FF03C0CB1FBC8
:10299C00F3F203FB1211B5FBF0FEB1FBFCF300FBF1
:1029AC001E550CFB131109FB05F50091B5FBF0F559
:1029BC006649CDE901E52046FFF756FFA2E706F090
:1029CC000803EBB1624B634953F82A202046FFF70A
:1029DC004BFF0546B8F1000F05D059494246204639
:1029EC00FFF742FF0544BBF1000FABD05A495A46E2
:1029FC002046FFF739FF0544A4E74FF0000BE1E751
:102A0C0006F00805E6E745469CE7BBF1010F069B7F
:102A1C0006D1002B64D1049B002B7BD000250CE04D
:102A2C00002BF8D04D485CE04D48069B4D492246A2
:102A3C0010F064FA049B002B68D0DFF82C81DFF8CF
:102A4C002C91049F3146102F204628BF1027FFF7EA
:102A5C001DFF4FF0000B5D4545DC059B49461A7880
:102A6C002046FFF701FF4FF0010B1BF0070F03D1BE
:102A7C0041462046FFF7F8FE5F453BD9059B49468A
:102A8C0013F80B202046FFF7EFFE0BF1010BBBF107
:102A9C00100FEAD1364920464FF0000BFFF7E4FE49
:102AAC005A46059B9A5CA2F120015F2928BF2E2271
:102ABC0030492046FFF7D8FE0BF1010BBBF1100F8C
:102ACC001DD01BF0070F03D141462046FFF7CCFE6B
:102ADC005F455A46E5D841462046FFF7C5FEEBE771
:102AEC001F485546A1E741462046FFF7BDFE0BF1B6
:102AFC00010BB0E720492046FFF7B6FEC5E7059B62
:102B0C003B440593049BDB1B04939AD1BAF1000F51
:102B1C007FF41FAF204609B0BDE8F04F10F0AABDFE
:102B2C00064A05492046FFF79FFE15E71786010860
:102B3C001B860108E46F01088292010812860108C5
:102B4C0040860108F0120020EC12002024860108B7
:102B5C00F86F0108448601084A860108D13601083D
:102B6C009B360108793D0008578601084F860108FD
:102B7C00598601085B8601085586010873B542F237
:102B8C000F738B4228BF0B4605680F4A044605217C
:102B9C0068460FF023FD63680C495B6806460B2200
:102BAC00284610F059FD63683246694628465B6832
:102BBC0010F052FD636806495B681B22284610F032
:102BCC004BFD02B070BD00BFC18C01087A860108B4
:102BDC005E860108074A00210123904206D8064A66
:102BEC0001B901231360054B1860704740085B0066
:102BFC000121F2E740420F00EC120020F0120020FD
:102C0C00F8B5074F0D4604464618B44201D1284684
:102C1C00F8BD14F8011BBB6801485B689847F4E7E2
:102C2C001C690108014B03600020704740700108CB
:102C3C004FF0B04382B0D3F8502142F48012C3F865
:102C4C005021D3F8503103F480130193019B0A4BAC
:102C5C001A6A42F400721A62D3F8D42042F4007259
:102C6C00C3F8D42040BF20BF044AD36843F40043C8
:102C7C00D36002B0704700BF000800580004005831
:102C8C0007B54FF0B0432C201A6D42F480121A6530
:102C9C001B6D03F480130193019B084B1A6842F0DF
:102CAC0001021A601A6842F480321A600CF000FCBF
:102CBC002D2003B05DF804EB0CF0FABB000C0058AF
:102CCC00024A536823F0010353607047000C00580C
:102CDC00024B4FF480329A60704700BF000C0058D2
:102CEC00044B4FF400129A605A6822F400125A6096
:102CFC00704700BF000C0058024A536823F00203CF
:102D0C0053607047000C0058044B4FF400329A602B
:102D1C005A6822F400325A60704700BF000C005809
:102D2C0010B5164CE368990709D463689A0306D466
:102D3C00636843F40033636000F0F4F910BDE3689A
:102D4C001B070DD4636818030AD4636843F400238B
:102D5C0063600B4B1B6898474FF40023A360EDE7AF
:102D6C00064BDA689106E9D45A689202E6D45A689E
:102D7C0042F400125A6000F0A3F9DFE7000C00588F
:102D8C002013002010B5084CE3681B0706D5074B31
:102D9C001860636823F40023636010BD80474FF410
:102DAC000023A360F9E700BF000C0058201300209B
:102DBC0010B5104CE3699A0707D563689B0704D4D8
:102DCC0000F0BCF90223A36010BDE369D80706D557
:102DDC006368D90703D400F04FF90123F3E7054CDE
:102DEC00E3691A07F0D563681B07EDD400F0EAF924
:102DFC000823E8E7000C005810B5054C01462046A6
:102E0C0010F015FD2046BDE8104011F009BE00BFC2
:102E1C008E1B0020034B01201870034B1B6803B161
:102E2C00184770478D1B00202413002030B5104D1F
:102E3C00104B4A68E8610C4685B028461A6000F0D1
:102E4C0099F80D4B24680D481C6010F0D7FCFFF767
:102E5C00E1FF0B4B01221A702B6833B1094A019226
:102E6C00094A0394029201A8984705B030BD00BFEF
:102E7C002813002024130020481300208E1B002050
:102E8C008C1B0020FF370108052E00081FB51748C2
:102E9C0010F0B7FCB8B9164C2378A3B1134801A9AC
:102EAC0010F0DDFC134BDA690123C2B101998DF8E6
:102EBC000830039102A890479DF80830237083B125
:102ECC00019800F071F9094810F09BFC28B9084BE7
:102EDC001B7813B1054811F0A3FD04B010BD23708D
:102EEC00EEE70199014810F096FCECE78E1B0020F0
:102EFC008C1B0020281300202DE9F8431D46184B8D
:102F0C001B6807460C4616460BB100209847DFF8A5
:102F1C005480154BD8F800004FF00009A0F8097048
:102F2C00C472224631460C3083F8009013F03AFB01
:102F3C000E4B01221A700E4B49461B6948469847A6
:102F4C0048F2E8000AF0CEFAD8F800108A7805F1B9
:102F5C000800033213F026FBBDE8F843FFF75ABF15
:102F6C0024130020481300208D1B00208B1B0020F5
:102F7C0028130020024B0360024B0361704700BF13
:102F8C00D93000081531000837B5094C094D0848EF
:102F9C0010F037FC08B103B030BD01A9204610F089
:102FAC005EFC2B690199186910F041FCEFE700BF3A
:102FBC00961B0020000003200B4B0C4A1A600C4A95
:102FCC005A600C4A9A600C4A1A620C4A5A620C4AB1
:102FDC00DA600C4A1A610C4A5A610C4A9A610C4A22
:102FEC00DA61FFF74DBE00BF00000320B8000320DC
:102FFC00A8000320980003209000032088000320E1
:10300C008000032064000320600003205400032090
:10301C004800032038B50C4D0446284610F0EEFB52
:10302C000A4BA2685B681A60E268DA60084AC3E976
:10303C000125FFF745FE074B22681A60064B6268B4
:10304C001A60002038BD00BF3000032000000320B0
:10305C00E4010320581300205413002008B5054B3D
:10306C005A685B68126801211172FFF731FE00206B
:10307C0008BD00BF0000032037B5084C084D0748B9
:10308C0010F0BFFB08B103B030BD204601A910F011
:10309C00E6FB2B6801989847F1E700BF300003204E
:1030AC005813002008B5054B5A685B68D26802219A
:1030BC001172FFF715FE002008BD00BF00000320B1
:1030CC00014B1B68184700BF5413002038B50A4D3C
:1030DC000446284610F092FB084BA268DB68C3E953
:1030EC000025FFF709FE064B22681A60054B626843
:1030FC001A60002038BD00BF280003200000032008
:10310C00501300204C13002008B5054BDA68DB681F
:10311C00126810211172FFF7F7FD002008BD00BFE7
:10312C0000000320034BDA68DA68034B10681B6855
:10313C00184700BF000003205013002037B5084C7F
:10314C00084D074810F05DFB08B103B030BD2046B8
:10315C0001A910F084FB2B6801989847F1E700BF98
:10316C00280003204C13002038B50C4D044628468B
:10317C0010F044FB0A4810F041FB0A4BA2681B6993
:10318C009A60E268C3E9032522681A6062685A6093
:10319C0022695A6162699A6138BD00BF4000032000
:1031AC00961B00200000032008B50146034810F0D0
:1031BC003EFBBDE808400248FFF7E4BD961B00202B
:1031CC00952F000813B5074C064810F01AFB08B1F0
:1031DC0002B010BD204601A910F041FB019810F07F
:1031EC004CFBF1E73800032008B50348034A0021E3
:1031FC00121A10F043FB08BDD8070020801C0020D9
:10320C000748084A084908B5121A10F039FB074854
:10321C00074A0849BDE80840121A10F031BB00BF3C
:10322C0000000020D4070020A0C5010800000020E9
:10323C0000000020A0C501082DE9F047064600AFAC
:10324C000C46002936D0E9468AB0D1E90012A368B1
:10325C006D462148A8464FF0050AC5E90501C5E9A8
:10326C00072348F810AF1D48424600234FF4215164
:10327C00FFF71AFACD46D4E903126369AD46184834
:10328C00C5F810A0C5E90501C5E9072313480023BB
:10329C0042464FF42151FFF707FACD46E369114A34
:1032AC000E48012110F0C2F9A3690F4A0B48012105
:1032BC0010F0BCF9012E07D1EFF305830B4A074838
:1032CC00103B314610F0B2F9214630460DF0AEFD00
:1032DC00BD46BDE8F08700BFC08601084C6E0108F2
:1032EC00EF8601081E8701082D8701085B870108FE
:1032FC0030BFFFF7FDBF00BF2DE9F0410B4EDFF8EB
:10330C00308006EB0807CC1B05463246094920469F
:10331C0013F048F9A01942460021083C13F050F96B
:10332C006C6707F10800BDE8F08100BF00000000E9
:10333C0008000000A46E0108054B5A699B689A426C
:10334C001FBF044A536843F080535360704700BF5B
:10335C003C1B002000ED00E070B5294C06460D46E4
:10336C002848294910F099FAA36AD9043CD5254874
:10337C00264910F092FA1720A36A1A0504D52148A1
:10338C00234910F08AFA18201D4CA36A9B0512D50C
:10339C001C48204910F081FAA36BA26A100409D5CD
:1033AC001D4A1848012110F041F91EB1A36A23F4FB
:1033BC000043A3621920124CA36A590504D5114885
:1033CC00164910F06AFA1A20A36ADA050ED50D48D0
:1033DC00134910F062FA1B20094A936A43F47F43A5
:1033EC00936200232B7070BD1620C5E7A36A9B0463
:1033FC00F2D504480B4910F050FA1C20ECE700BF42
:10340C0000ED00E04C6E01086E870108848701080E
:10341C0095870108A8870108C1870108D68701088C
:10342C00F18701080988010810B5204C2049214872
:10343C0010F033FAA36A990136D51E481E4910F0D4
:10344C002CFA1E20A36ADA0104D51A481B4910F085
:10345C0024FA1F20154CA36A1B0304D515481849E0
:10346C0010F01BFA2120A36A590304D51148154901
:10347C0010F013FA22200D4CA36A9A0304D50D48C0
:10348C00114910F00AFA2320A36ADB0304D509487A
:10349C000E4910F002FA2420044A936A6FEA03439F
:1034AC006FEA1343936210BD1D20CBE700ED00E0E3
:1034BC00388801084C6E010850880108638801089F
:1034CC007D8801089B880108C0880108DA880108FA
:1034DC002DE9F843364D804689463648364917461D
:1034EC0010F0DBF9AB6ADE0627D53449314810F011
:1034FC00D4F91124AB6A1D0704D531492D4810F0BD
:10350C00CCF912242A4DAB6A980718D52D492948B5
:10351C0010F0C3F96E6BAB6A190646D52A4A2548DA
:10352C003346012110F082F8B9F1000F03D0AB6AD9
:10353C0023F08003AB62132403E01024DAE76FF06E
:10354C0015061B4DAB6ADA0704D52049194810F053
:10355C00A4F91424AB6A9B0604D51D49154810F038
:10356C009CF91524124B9A6AD50602D49A6A9007D4
:10357C000AD55B68190507D54146304600F02AFA92
:10358C0010B180F309880224094B9A6A920642BF53
:10359C005A6A22F400525A629A6A42F0FF029A6204
:1035AC0000233B702046BDE8F8836FF01506C2E798
:1035BC0000ED00E04C6E0108058901081B8901082B
:1035CC00958701084E890108668901087C890108E4
:1035DC00098801082DE9F041664B8AB0D3F80480C4
:1035EC0000AF0446C8F30805002686F31188BFF324
:1035FC006F8F02F07F43B3F17F4F07D102F00C03C2
:10360C00082B12D15C495D4810F047F9002634466E
:10361C000023FB71EB1E092B00F28A80DFE803F01C
:10362C000A80837C88888888888610074CBF0C4663
:10363C000126EDE7524951484E4D10F02EF900236A
:10364C00FB71EB6A9A0705D54E494C4810F025F9E9
:10365C00002332E0EB6A002B01DA4B49F5E7EB6A09
:10366C005B00F5D54949454810F017F96B69A2691B
:10367C0043F480736B61BFF34F8FBFF36F8F6B6934
:10368C0032F8022C23F480736B61BFF34F8FBFF3BE
:10369C006F8F4DF602739A4208D0AB6ADBB273B3EC
:1036AC00FA1D01212046FFF713FF37E02368384A43
:1036BC00324801210FF0BAFF2368FA79DAB907F121
:1036CC00080504F1200C206861682A4603C20834FE
:1036DC0064451546F7D17A6A002E45D0C2F308012D
:1036EC0021B96FEA52226FEA42227A6207F108018D
:1036FC001846FFF7A1FD2837BD46BDE8F081AB6A3F
:10370C0013F47F4F04D0F91D0120FFF725FE05E0CF
:10371C00AB6AB3F5803F9BD3FFF786FE0346CCE73D
:10372C00FA1D0021BEE7F91D0020EEE719498CE7D0
:10373C00194A1A4B18F4F87FE8468AB018BF13469A
:10374C006A461749C2E905134FF400731384103D00
:10375C00144BD56142F8103F084800234FF4115127
:10376C00FEF7A2FFC54673E722F4FF7222F00102B6
:10377C00BBE700BF00ED00E0C98901084C6E0108F1
:10378C00F48901080B8A01082C8A01083A8A01087D
:10379C00598A0108758A0108B08901089B890108BA
:1037AC00998A010804000001044B5A6942F0100286
:1037BC005A615A6922F008025A61704700ED00E024
:1037CC00EFF30880EFF3098101B57246FFF702FFB2
:1037DC0001BD00BF0A4880F30888102080F31188CF
:1037EC0008484FF40461401880F30988EFF3148003
:1037FC000221084380F31488BFF36F8F00F0B2F8F6
:10380C0080420020C0300020084B9B6883420BD1C3
:10381C00EFF3058343B1064B5A6842F080525A606D
:10382C005A6A22F400425A620EF056BB3C1B00202E
:10383C0000ED00E014498A684FF030001044EFF3BB
:10384C00098C80E8F01F102080F31288BFF36F8F73
:10385C000E4F4FF000664A698A603E60506F0C4C08
:10386C002060906F0023936780F3118804B5104695
:10387C0000F014F9BDE8044002F1300090E8F01FAC
:10388C008CF30988704700003C1B002004ED00E01D
:10389C005C1300201EF0040F0CBFEFF30880EFF355
:1038AC000980816911F8021C0229FFD001B572460A
:1038BC000FF0E8FF01BD00BF40B2002807DB044A4F
:1038CC004109012300F01F00834042F8213070476A
:1038DC0000E100E040B200280CDB4309064900F08F
:1038EC001F0020330122824041F82320BFF34F8F69
:1038FC00BFF36F8F704700BF00E100E0054B42093A
:10390C0000F01F0053F82220012303FA00F01040AE
:10391C00704700BF00E100E040B20028A8BF00F1F2
:10392C00604001F10101B8BF064B4FEA0111ACBF79
:10393C0000F5614000F00F00C9B2B4BF195480F813
:10394C000013704714ED00E0044B054A23F07F038D
:10395C009360BFF34F8FBFF36F8F70470000000869
:10396C0000ED00E008B5FFF7EFFF0B4AD2F8883006
:10397C0023F47003C2F88830EFF3148323F00403AC
:10398C0083F31488BFF36F8FFFF72EFCFFF738FC1F
:10399C0000F05AF80DF06EFB00ED00E042F8203C10
:1039AC00009B42F81C3C0A49019B42F8183C029BC4
:1039BC0042F8143C21F001014FF0807342F8043CB2
:1039CC0042F8081C0023203A02658367704700BF49
:1039DC0041200008094A0346906870B113F1160F94
:1039EC00406E05D0A0F140029A4205D8834203D222
:1039FC00814228BF00207047002070473C1B0020EC
:103A0C0008B515460B4A0C4B9060426F1A600E4677
:103A1C0000F044F82C4686F309880020034B9847A5
:103A2C002046002100220023014C2047BD3801080C
:103A3C00412000083C1B00205C130020014B10228D
:103A4C001A61704700ED00E0044800231021C218F1
:103A5C0001333F2B82F80013F9D1704700E100E0ED
:103A6C0008B5EFF30583064A103B02EBC30152F88D
:103A7C00330049688847BDE80840FFF75DBC00BFCC
:103A8C00186A0108024B034A0348012100F08AB866
:103A9C00000003200000002040700108426E054B1E
:103AAC00403A1A60044A4021C3E901121846012128
:103ABC0000F082B86013002000000B1508B5034617
:103ACC001048D0F89020C2F30722013A934207D94C
:103ADC000D480E4A01210FF0A9FD6FF0150008BD2D
:103AEC00C0F898300A6822F01F021A4342F0100204
:103AFC00C0F89C208A6842F00102C0F8A020184649
:103B0C00EDE700BF00ED00E0346E0108B08A01085B
:103B1C00F0B50E4685B01F4604460025B5420DDAB9
:103B2C00606810B397B1431E18420AD0104A11486E
:103B3C002B4601210FF07AFD6FF01502104605B0EF
:103B4C00F0BD1F28F2D921680B42EFD123680193F5
:103B5C000FF0C2FEA36801A90343D0B20393FFF791
:103B6C00ADFF10F1160FE7D0421C01350C34D5E730
:103B7C00D68A0108346E0108044B0522C3F8942040
:103B8C00BFF34F8FBFF36F8F704700BF00ED00E0A6
:103B9C00BFF35F8F024B0022C3F89420704700BF25
:103BAC0000ED00E010B5034C01232278FFF7B0FFC5
:103BBC00207010BD9E1B002008B50B4A0023127804
:103BCC00FFF7A6FF10F1160F07D0084A0021D2F814
:103BDC009030C3F30723984200DB08BDC2F898006D
:103BEC00C2F8A0100130F2E79E1B002000ED00E0AF
:103BFC002DE9F04357485849D0F890300D68C3F37D
:103C0C0007239D4285B000F2A180FFF7C1FF4968F0
:103C1C000022954201F10C011AD1504C504F2570E5
:103C2C006846FEF7FFFFDFF83C81DFF83C91064663
:103C3C000025AE421FD1237846490020D1F89020B0
:103C4C00C2F3072293427BDBFFF796FF00204CE088
:103C5C00C0F8982051F80C3C23F01F03134343F099
:103C6C001003C0F89C3051F8043C43F00103C0F839
:103C7C00A0300132CDE7009800EB05114FEA051C8E
:103C8C00CB683B40B3F5000F44D00AD8B3F5001F06
:103C9C002ED0B3F5800F34D0B3F5801F10D0013582
:103CAC00C7E7B3F1807F3ED0B3F1007FF7D150F876
:103CBC000C3088684A680FF00FFE40F4802009E051
:103CCC0050F80C3088684A680FF006FE40F08850B7
:103CDC0040F43020039001A92078CDE90123FFF7AF
:103CEC00EDFE002828DA6FF0150005B0BDE8F08372
:103CFC0050F80C3088684A680FF0EEFD40EA080076
:103D0C00E8E750F80C3088684A680FF0E5FD40EAA7
:103D1C000900DFE750F80C3088684A680FF0DCFDCA
:103D2C0040F08270D6E750F80C3088684A680FF083
:103D3C00D3FD40F08870CDE7237801332370AEE7D4
:103D4C00C1F89830C1F8A000013377E74FF0FF308D
:103D5C00CBE700BF00ED00E04C7001089E1B00207B
:103D6C000000F0FF0000081100000206F0B587B05B
:103D7C0007460E4614460021102268461D4612F0D6
:103D8C001FFC02238DF802302A46054B0193214675
:103D9C006846CDE904760EF04BFC07B0F0BD00BFD1
:103DAC000539010808B5024B1B689847002008BD6F
:103DBC006C130020034B044A1860937843F0020301
:103DCC00937070476C1300207802002008B50649E8
:103DDC00064821F00701C1F1005202F540320FF004
:103DEC0050F8002008BD00BF47550020701300207C
:103DFC0003484FF0FF324FF0FF330DF0F5B900BF21
:103E0C008802002001480DF067BA00BF880200202C
:103E1C0038B50546FFF7ECFF08482A4608210EF096
:103E2C00C1FF044628B925B112F04EFC044B0C22FC
:103E3C001A50FFF7E7FF204638BD00BF7013002073
:103E4C000C00000010B50446FFF7D2FF21460348D2
:103E5C000EF069FFBDE81040FFF7D4BF70130020CF
:103E6C0070B5A0FB01543CB92846FFF7D1FF0646BC
:103E7C0040B90026304670BD12F026FC044B0C22D3
:103E8C001A50F6E72A46214612F09AFBF2E700BFD9
:103E9C000C00000070B54169867A0B4D044659B18F
:103EAC00437ADB0706D42C2303FB06535B6A1B689F
:103EBC009B689847002363612C20214606FB005029
:103ECC00BDE8704012F01CB8A0060020024B2C225A
:103EDC0002FB0030704700BFA0060020827A064B20
:103EEC002C2101FB02339A6A1B7F1B33801A23F0AF
:103EFC000303B0FBF3F07047A006002038B5074B66
:103F0C00827A2C2404FB02335B6AD3E901240C6013
:103F1C001568FFF7E3FF04FB005038BDA006002036
:103F2C002DE9F04385B005466846039190461C4642
:103F3C0012F061FADDE90067EFF31189102383F3C6
:103F4C001288BFF36F8F6B8B002B41D02A8B9A4258
:103F5C0025D90022002328460DF00EFA0446F0B1B4
:103F6C0089F31188BFF36F8F039B002B41D032462E
:103F7C003B46684612F064FAA27A264B2C2101FBD0
:103F8C00023320465B6A1B6803A91D68DDE9002328
:103F9C00A847606170BB2046FFF77CFF24E0698B6B
:103FAC004B1E6B8389F31188BFF36F8F2B7F2A8B8A
:103FBC00AC6A1B3323F00303521A02FB0344154B68
:103FCC00154AEB1A9B105343A3722B7FE372CBE77A
:103FDC0089F31188BFF36F8F2346424628460DF0B4
:103FEC00CBF904460028BFD10024204605B0BDE81B
:103FFC00F0836361012300252381039B6382E27AB2
:10400C006560294604F1180012F0DAFA636925821A
:10401C00E360EAE7A0060020A38B2EBA70B50D4C26
:10402C002C2500B970BD037A4668002BFAD0013BF1
:10403C00DBB20372002BF5D1C3604360837A05FBBE
:10404C0003431B6A13B198473046EAE7FFF722FF98
:10405C00FAE700BFA006002010B5034605488268A9
:10406C0014688AB21946A0470028B4BF6FF0040048
:10407C00002010BDE46801080E4B402970B528BF24
:10408C0040210D4C46181D46B04203F1020304D1E9
:10409C00002305F81130074870BD02781209A25CA4
:1040AC0003F8022C10F8012B02F00F02A25C03F8AB
:1040BC00012CE9E7F41B00209C8B010810B586B09D
:1040CC00037804934378039383780293C378019322
:1040DC000379054C00934379044A122120460EF0D3
:1040EC007DFA204606B010BDE21B0020398B01087A
:1040FC0030B503788BB0044607AD032B21D8DFE82D
:10410C0003F0021A1C1E12492846FCF7F3FF059512
:10411C0063780493A3780393E37802932379019350
:10412C0063790093A3790B4A0B481E210EF056FAC3
:10413C0009480BB030BD0949E6E70949E4E70949EC
:10414C00E2E7094A0A2128460EF048FADFE700BFE9
:10415C00578B0108798B0108C41B00205E8B01086A
:10416C00658B01086F8B0108E4BB010810B5034C8B
:10417C002522214600F064F8204610BD9F1B00202C
:10418C0030B50B4D0B4B87B0002428460393CDE97B
:10419C00044411F08DFF03AB0093284606490A2313
:1041AC004FF4A8620DF0F2FA204607B030BD00BF04
:1041BC00980C0020AD8B0108C01F0020014601485F
:1041CC000DF024BB980C00200378012B30B513D0D4
:1041DC00022B27D07BB9194B0A4603F1100453F874
:1041EC00045B42F8045BA342F9D11B78137043883B
:1041FC004B731B0A8B7330BD104B0A4603F1100432
:10420C0053F8045B42F8045BA342F9D11B7813709A
:10421C0043684B73C3F307221B0CCB731B0A8A73C3
:10422C000B74E8E700F1100350F8042B41F8042B51
:10423C009842F9D103780B70DDE700BFD38B0108EE
:10424C0010B5034686B01C78012C0846114609D0DF
:10425C00022C0AD0FCB95B88124A06B0BDE81040AB
:10426C000EF0BCB95B68104AF7E7B3F80120049272
:10427C00D3F803200392B3F807200292B3F8092075
:10428C000192B3F80B200092D3F80D30074A0EF0D0
:10429C00A5F906B010BD002106B0BDE8104012F023
:1042AC008FB900BF31A80108EA860108B68B010856
:1042BC0010B50FF051FC11F050FF0E4C30B1BFF3A4
:1042CC005B8F2368BFF35B8F7BB910BD0DF00AFDCC
:1042DC00BFF35B8F2368BFF35B8F1BB9BDE8104046
:1042EC000DF014BD0A209847F8E7BDE810400A20ED
:1042FC00184700BF7C13002038B5044608480FF05F
:10430C000CFB054648B1631EDBB21F2B96BF054A5A
:10431C000021D15C0C300FF06FFB284638BD00BF7C
:10432C007C070020268C01080F2810B50CD80D280E
:10433C000CD90A480FF0F1FA044618B104210C30DC
:10434C000FF05AFB204610BD1328F2D009B10448D7
:10435C00F0E7BDE810400220FFF7CEBFA807002011
:10436C00F80600202DE9F84300AFE9468AB09046E4
:10437C0004460D461E466A46184B5361184BC2E95B
:10438C0006300623C2E9088642F8103F0023154880
:10439C004FF44451FEF788F9CD4605F10C0904F1B0
:1043AC000C0148460FF012FB48460FF05EFB012350
:1043BC0010FA88F060826372A4F810804146484677
:1043CC000FF033FBEB6873606A8A00232046EB60C6
:1043DC0072816B823560BD46BDE8F883E48B0108C1
:1043EC005A8C0108946D0108F8B500AF6E468AB07E
:1043FC0005460C466A46114B5361114B1162C2E9DA
:10440C000630052342F8103F4FF424510D48002389
:10441C00FEF74AF9D4E90032DA60236862895A82DD
:10442C00B5462068FFF7FAFD10220021204612F055
:10443C00C7F828460FF090FBBD46F8BD0A8C010862
:10444C00468C0108946D0108C368034A1B78034825
:10445C0002210FF0B7BB00BF7A8C0108B46D0108C4
:10446C0010B501210C300FF0E8FABDE810400378CC
:10447C00024A034801210FF0A5BB00BFA28C010822
:10448C00B46D0108014610B508480FF04AFA084906
:10449C00084811F0E2FD031E06DABDE81040064A9A
:1044AC00064801210FF08EBB10BD00BF4C0100204F
:1044BC00AC020020D80D0020C48C0108B46D01089A
:1044CC0010B586B003AB0024009307490748059448
:1044DC004FF0FF334FF48062CDE903440DF056F9F1
:1044EC00204606B010BD00BF40250020380D00202E
:1044FC0010B5084C0146062294F86F0003F0A2FD9B
:10450C0038B994F86F000449BDE81040052203F057
:10451C0099BD10BD000000201F8B0108024A034802
:10452C0001210FF04DBB00BFE18C0108B46D0108F7
:10453C00B0B50B460D8A00AF04462946D868FFF784
:10454C009BFD8AB06A46094BC2E9053440F202432E
:10455C009384074BC2E907504FF4325142F8103F95
:10456C0004480FF040FBBD46B0BD00BFFB8C0108FA
:10457C0005000001B46D0108F8B5C46800AF6E46C3
:10458C008CB0B4F801502178E3786A461548506134
:10459C0015489362C2E9060140F202431349938520
:1045AC00134B1448C2E9081542F8103F4FF47451EC
:1045BC000FF019FBB54626785EB90F21284603F09B
:1045CC004FF8044638B90C4A0A482B4601210FF023
:1045DC00F9FABD46F8BD314602F00AFF204602F05A
:1045EC006FFEF6E71D8D0108B796010811860108CC
:1045FC0007000001B46D01084A8D0108F8B5C668C2
:10460C0000AF6D468CB0B6F801403178F3786A464D
:10461C001848506118489362C2E9060140F20243FF
:10462C0016499385164B1748C2E9081442F8103FF7
:10463C004FF474510FF0D7FA3378AD4683B90F218C
:10464C00204603F00DF8F378054658B90E4A118848
:10465C0031B96FEA04546FEA145414800B4A137086
:10466C00BD46F8BD4372012102F0C2FE284602F09D
:10467C0027FEF5E71D8D01081B970108118601081F
:10468C0007000001B46D0108721B0020751C00208E
:10469C0070B5C568B5F801600121304602F0E0FF45
:1046AC00044638B933460D4A0D48BDE87040012127
:1046BC000FF088BA2B783BB9D5F80330C0F8993095
:1046CC00D5F80730C0F89D30201D4FF480310FF025
:1046DC007BFA2046BDE8704002F0F2BD708D0108F7
:1046EC00B46D01082DE9F04F83B0C668008A3178AB
:1046FC000424012314FB0133834200AF14D96C460C
:10470C008AB06A46444DC2E907300523C2E9055117
:10471C00424842F8103F4FF421510FF064FAA5467D
:10472C000C37BD46BDE8F08F6D4688B06A46DFF8A1
:10473C00F0903C4B5361C2E90691384842F8104F57
:10474C004FF40451DFF8D4800FF04DFAAD4600253C
:10475C0033789D42E4DA06EB8503EB468AB0B3F876
:10476C0001A0B3F803406A462F4BC2E90539052373
:10477C00C2E907A44FF4245142F8103F40460FF011
:10478C0032FA0F21DD46504602F06AFF834670B1C3
:10479C0000F1C40A3CB1DBF8142082B9234A012190
:1047AC0040460FF00DFA584602F08AFD05E0204A0B
:1047BC005346012140460FF005FA0135C8E7DBF8F6
:1047CC0018001168CBF81410824208BFCBF81810EF
:1047DC0058467A6002F000FC0CF000FE7A68002368
:1047EC001360DBF8201099B9CBE90722BFF35B8F7C
:1047FC005AE8002F013A4AE800210029F8D1BFF30A
:10480C005B8F00215846013C02F0F2FBA4B2C1E7D9
:10481C000A60CBF82020E9E7948D0108B46D0108FB
:10482C0035970108BF8D0108D28D0108058E01084E
:10483C00E98D010837B502EBC303934204D103B0F1
:10484C00BDE83040FFF774BE144614F8085B85428F
:10485C0011D10B8A54789C4207D9084A0090012147
:10486C0007480EF0EDFE03B030BD5368084603B0A8
:10487C00BDE8304018472246DFE700BF1C8E010818
:10488C00B46D01082DE9F0470C4600AF0DF02AFA83
:10489C00E3686E468AB01D78238A6A46474951619F
:1048AC00474913620523C2E90614464842F8103FF3
:1048BC004FF424510FF097F9022DB54674D0042D06
:1048CC000BD0414A3F482B4601210FF07BF9204683
:1048DC00FFF7A4FB6FF015040BE0238A022B0ED814
:1048EC003A4A384801210FF06DF92046FFF796FB44
:1048FC0000240DF00BFA2046BD46BDE8F087E268B7
:10490C0050783E280AD1032B01D1314AE9E7D378FC
:10491C00012B01D00A2B47D1032604E00FF03EF9FE
:10492C000646F0073ED504F10C0528460FF09DF81D
:10493C00012180462846B4F810A00FF076F8022129
:10494C0028460FF07AF8814600783E2816D1E368A5
:10495C001B78012B2CD00A2B2AD002251D4A1E496C
:10496C001E4841F24B130EF030FB002383F31188E9
:10497C00BFF36F8F0323184602DF04E00FF00EF92C
:10498C00C1070546EAD5164A99F8000006232146C8
:10499C00FFF750FFAA070DD56369A4F810A013FA0E
:1049AC0088F3E360B307A3D52046FFF76BFD9FE7C1
:1049BC000325E8E72046FFF731FBF3E73E8E0108BD
:1049CC0066970108B46D0108F68E0108508E010837
:1049DC006C8E01088C8E0108C08E0108D98E0108DE
:1049EC00B4700108F8B5012100AF05460C300FF08A
:1049FC0024F86E4688B0037804466A460A49516129
:104A0C000A490B48C2E90613042342F8103F4FF43D
:104A1C0004510FF0E8F8074A2078B54602232946DE
:104A2C00FFF708FFBD46F8BD0A8F01084F97010834
:104A3C00B46D0108E47001082DE9F04782B06D46B1
:104A4C0002AF88B002AA6A4B6A4E53614FF0030959
:104A5C009661694842F8109F4FF4C8510FF0C3F8A3
:104A6C006648AD460EF072FF0446002800F08C80BC
:104A7C0000F10C0840460EF0E8FF8AB0238A82460B
:104A8C0002AA5F495362C2E905160626C2E907402D
:104A9C004FF4445142F8106F57480FF0A4F8BAF194
:104AAC00020FAD4605D0BAF1040F70D0554A5346EB
:104ABC0015E088B002AADFF85091544B53614FF0C7
:104ACC00040AC2E906944C4842F810AF4FF4045162
:104ADC000FF089F8238A032BAD4605D84C4A46487B
:104AEC0001210FF06FF828E0514640460EF0A5FF6B
:104AFC000388B0F802A04FEA1338FF22C3F30B036C
:104B0C008AB02276638302AA4249C2F82480C2E9A1
:104B1C000519C2E9073A384842F8106F4FF444516E
:104B2C000FF061F8238A9A45AD460AD03A4A3248CA
:104B3C00CDF800A001210EF083FD2046FFF76EFAA0
:104B4C0013E0608B0F2102F08BFD054610B9638BCF
:104B5C00324AC4E702F0AAFD424620762146284696
:104B6C0002F09CFA284602F0ABFB2D4BD3F84C31EB
:104B7C0053B12C492C4811F070FA031E04DA2B4A5D
:104B8C001D4801210FF01EF8BD46BDE8F08702213B
:104B9C0040460EF052FF88B00378064602AA24491C
:104BAC00516124491448C2E9061342F810AF4FF47E
:104BBC0004510FF018F830783E28AD4611D00EF0A5
:104BCC00EDFF10F002050CD11B4A1C491C4840F6A5
:104BDC00AE430EF0FAF985F31188BFF36F8F484698
:104BEC0002DF184A307804232146FFF723FEA4E79E
:104BFC001E8F0108DE960108B46D01084C010020DF
:104C0C003D8F010826900108D6960108578F0108A0
:104C1C00628F0108838F0108A18F0108C58F0108DD
:104C2C0000000020AC020020D80D0020C48C01082C
:104C3C00E78F0108CC9601088C8E0108F88F0108CB
:104C4C00D98E0108F4700108F8B5012100AF0546B2
:104C5C000C300EF0F2FE6E4688B0037804466A46BD
:104C6C000A4951610A490B48C2E90613042342F868
:104C7C00103F4FF404510EF0B6FF074A2078B546AA
:104C8C0006232946FFF7D6FDBD46F8BD0A8F01085D
:104C9C00A5960108B46D0108147101082DE9F04FB7
:104CAC0083B06C4602AF8CB016468346894602AA86
:104CBC005949516159495A4BC2F82090C2E9091619
:104CCC0040F2035191855749C2E9063042F8101F52
:104CDC0055484FF474510EF086FFA546BBF1000FFA
:104CEC0014D0DFF848A1BFF35B8F00225AE8004FC5
:104CFC004AE800210029F9D1BFF35B8FA0464CB9DB
:104D0C004B4A49485B4601210EF05CFF0437BD4617
:104D1C00BDE8F08F2046FFF7E1F8464D0C2202FB70
:104D2C000050418859451ED02046FFF7D7F80C2279
:104D3C0002FB005042883C4800925B463E4A0121EF
:104D4C000EF07EFCBFF35B8F5AE8003F4AE800820E
:104D5C00002AF9D1BFF35B8F002BD7D09846404681
:104D6C00FFF75CF9D2E7A64208D020460EF0D0FD42
:104D7C00328AF16804F10C000EF035FE2046FFF784
:104D8C00ADF80C2606FB00504368ABB1B9F1000F2F
:104D9C0012D12046FFF7A2F806FB00500121426811
:104DAC00D2E90003127A03F01F06B1405B096AB323
:104DBC0000EB83000EF008FF2046FFF78FF84FF052
:104DCC000C0A0AFB00508368002BC8D06E4688B0D2
:104DDC0002AA1A4B5361124B9361032342F8103F02
:104DEC004FF4C85110480EF0FEFE2046B546FFF7B2
:104DFC0075F80AFB00F005F800902046FFF76EF8F6
:104E0C000AFB0055A8680CF0E9FAA8E7C94300EBC7
:104E1C0083000EF0EBFECFE73A90010811860108F3
:104E2C00FF96010807000001B46D0108480100203D
:104E3C0064900108801300208C900108BF90010839
:104E4C00F0B583B0C56800AF6C468CB0B5F80160A6
:104E5C002B786A464A4951614A494B48C2E90613C4
:104E6C004A4BC2E9083640F202431385484B42F8DC
:104E7C00103F4FF454510EF0B6FE0121A5463046BA
:104E8C0002F0EEFB044640B9424A3F48334601214A
:104E9C000EF098FE0C37BD46F0BD2B781A2B00F1A6
:104EAC00040617D1C378012B4ED14FF48041304604
:104EBC000EF08AFE42040DD4D4F88C303B60394697
:104ECC00D4F894307B60204603F09CFF204602F01F
:104EDC00F7F9DFE72B78BBBBB5F803302E4940F26E
:104EEC00E2425343C4F88830B5F80520A4F890206A
:104EFC00B5F80720A4F89220A3F5EA520C3A8A429E
:104F0C0004D9264A204802210EF05CFEB4F89030F9
:104F1C00B3F5FA7F04D3224A1B4802210EF052FE4D
:104F2C00B4F89230A3F10A0292B240F676418A426A
:104F3C0004D91C4A144802210EF044FE6FF480512F
:104F4C0030460EF053FE17E0BFF35B8F6368BFF380
:104F5C005B8FDB04F2D52B78202BEFD194F89830B3
:104F6C00002BEBD0013B84F8983049F640420023EB
:104F7C0004F140000CF074FC204602F033FFA5E76E
:104F8C00D590010876960108B46D010811860108C8
:104F9C0006000001708D010895F03C00F5900108A9
:104FAC001C91010843910108B0B53C2800AF0446A0
:104FBC001AD101F0C3FC6FF4807110300EF016FEA4
:104FCC000020FFF795FA054630B9124A1248012124
:104FDC000EF0F6FDBD46B0BD4472002102F008FA99
:104FEC00284602F06DF9F5E76D468AB06A460B4B20
:104FFC00C2E905300A4BD36140F201331384094BEB
:10500C0042F8103F04484FF412510EF0ECFDAD463F
:10501C00E0E700BF6F910108B46D010890910108A1
:10502C00118601080400000110B5C1E900239DF8A8
:10503C0008300B720C46FEF751FF034B0C2202FB9F
:10504C0000335C6010BD00BF801300202DE9F041DF
:10505C0002460B46224800AF0EF05FFC214B044683
:10506C0090B96D4688B06A461F492048C2E90513BD
:10507C00032342F8103F4FF4C8510EF0B4FDAD4677
:10508C002046BD46BDE8F0816E4688B06A46184998
:10509C00D0610425C2E90513144842F8105F4FF49F
:1050AC0004510EF0A0FD2946B54604F10C000EF09B
:1050BC0089FC2046FEF712FF0E4D4FF00C0808FB42
:1050CC000050002646802046FEF708FF08FB0050E3
:1050DC0086602046FEF702FF08FB00556E60CFE7A6
:1050EC00500700200F980108AC910108B46D01081D
:1050FC00578F0108801300200138C0B202289ABFD4
:10510C00014B185C002070472C960108F8B5C56857
:10511C00B5F8016000AF0121304602F0A1FA044657
:10512C0038B91B4A1B48334601210EF04BFDBD46D6
:10513C00F8BD6E468CB02878E9782B796A46DFF892
:10514C0058C0C2F814C0DFF854C09362C2E906C05C
:10515C0040F2024312489385124BC2E9080142F80F
:10516C00103F4FF474510B480EF03DFDB546E878F6
:10517C00FFF7C2FF84F8A8002879FFF7BDFF84F879
:10518C00A900204602F082FE204602F099F8CEE7F4
:10519C00708D0108B46D0108F39101088E96010819
:1051AC00118601080700000110B592B004460749AA
:1051BC00442201A811F0F6F9102C9BBF12AB03EBA3
:1051CC008404034854F8440C12B010BDB86E0108A6
:1051DC0026920108B0B5C368018A1B7800AF6D46F2
:1051EC008AB004466A460C4850610C48C2E9081360
:1051FC000623C2E906044FF4445142F8103F084814
:10520C000EF0F1FC074BD3F86C018368AD469B683C
:10521C0021469847BD46B0BD2E92010875970108EE
:10522C00B46D0108000000202DE9F84F042100AFF7
:10523C0045480EF0C9FC6D4688B06A46434B536135
:10524C00434B93614FF400739383424C424B42F8AF
:10525C00103F4FF4E6514148414E0EF0C4FC414B17
:10526C00E279AD462046012A88BF1E46FEF740FF74
:10527C008AB06A463C4BD061C2E905363B4B13629F
:10528C003B4B42F8103F35483A4EDFF8EC80DFF8E4
:10529C00CC904FF423510EF0A6FCA346AD4601254D
:1052AC00E3799D420BF1070B38DB94F870502846DC
:1052BC00FFF77AFF6E468CB0B4F87210B4F8763003
:1052CC006A46DFF8B8C05362C2E907512C4B4FF461
:1052DC000075C2E905C015854FF4535142F8103FD3
:1052EC001E480EF080FCB54694F871603046FFF70E
:1052FC005BFF8AB0B4F874306A4622499584C2E9DF
:10530C000763214BC2E9051042F8103F13484FF4D4
:10531C0033510EF068FCBD46BDE8F88F5846FEF7D9
:10532C00E7FEEA468AB06A4640F20133C2E90565F7
:10533C00D06113844FF4135142F8108F48460EF08D
:10534C0052FC0135D546ABE7D00000204C92010849
:10535C005E9201080000002003000001B46D0108FA
:10536C0011860108489201086592010800020103A8
:10537C0004000002749201080400000185920108E7
:10538C0006000001C39201080500000100487047A7
:10539C001884010898B500AF6C4688B06A46094B72
:1053AC005361094B9361032342F8103F07484FF4B4
:1053BC00C8510EF018FC06490648A54610F04DFEE3
:1053CC00BD4698BDEA9201084E960108B46D0108DD
:1053DC009C020020380D0020F8B5054600AF0C46A5
:1053EC0061B94FF0FF304FF0FF31FFF72FFE04464D
:1053FC0020B96FF068052846BD46F8BD6E468AB0E8
:10540C00238A6A4622495161224913620523C2E963
:10541C000615214842F8103F4FF424510EF0E3FBDF
:10542C002046B546FEF75AFD1C4B0C2202FB0033FE
:10543C00A61830465D800EF018FB03280BD903210B
:10544C0030460EF0E1FA0580238A033B837001217C
:10545C0030460EF0E1FA40F635439D420FD120461E
:10546C00FFF7B8FE05460028C5D003460C4A0A488B
:10547C0001210EF0A7FB2046FEF7D0FDBBE7094843
:10548C00214610F032FD0025FFF784FFB3E700BF83
:10549C00D4910108FF970108B46D01088013002016
:1054AC00F6920108540100202DE9F04F87B0064612
:1054BC0000AF90460C4671B94FF0FF304FF0FF3102
:1054CC00FFF7C4FD044668B96FF0680528461C3721
:1054DC00BD46BDE8F08F887AFEF7F8FC524B83424C
:1054EC0040F09B806D468AB0238A6A46DFF83CA167
:1054FC004F495161C2E908630623C2E906A44D482D
:10550C0042F8103F4FF444510EF06DFBAD460122B2
:10551C000021384610F002FD2046FEF7DFFCDFF8D4
:10552C0018B10C2303FB00B0876020460EF024FA60
:10553C0001463046FFF750FF054618B12046FEF7EE
:10554C006DFDC3E73D4A002338460BF081FF8146D1
:10555C0090B14FF4FD733A4A3A493B480DF035FD92
:10556C003A484A4631460DF030FD85F31188BFF3B9
:10557C006F8F0323184602DF2046FEF7AFFC0C2387
:10558C0058431BF80090B9F1000F2DD06D468AB02E
:10559C006A462F4BC2F81C90C2E905362D4B13629C
:1055AC0040F2024393842C4B42F8103F21484FF4B5
:1055BC0032510EF018FB2046AD46A9F10909FEF751
:1055CC002DFDB9F1090F0CD8DFE809F0050B0B081C
:1055DC002A0B0B0B0B276FF06E0577E76FF00C05A2
:1055EC0074E76FF0040571E7E9468AB0238A6A46CE
:1055FC001A4953620623C2E9051AC2E907460D4847
:10560C0042F8103F4FF444510EF0EDFACD46B8F18C
:10561C00000F93D0C8F8004058E76FF0150555E718
:10562C006FF00B0552E700BF50070020EA97010806
:10563C0018930108B46D0108801300208038010014
:10564C008C8E010838930108D98E0108419301080A
:10565C00869301081186010805000001A593010835
:10566C002DE9F04F684B694D89B002AF186838616D
:10567C009B88D5F86C01BB828368DB6843B107F16A
:10568C0010019847044618B110F1580F40F0B6803D
:10569C0007F10C02002141F20300FFF705FF04465D
:1056AC00002840F0AB80D7F80CB0C7F804D0DBF87A
:1056BC000C303B609A468AB01AF8011B02AA544877
:1056CC00544BDFF854911362C2E9060140F20248D0
:1056DC005249C2F81490A2F82480514842F8101F85
:1056EC004FF434510EF07FFA3B68DAF80410D3F81B
:1056FC0001004C4ED7F804D003C65846FEF78EFC7A
:10570C00214607F10C0241F20100FFF7CDFE0446E1
:10571C00002873D1D7F80CB0DBF80CA08AB09AF83B
:10572C00003002AA4049C2F81490C2E90613394B62
:10573C003A491362A2F82480394842F8101F4FF4FA
:10574C0034510EF050FA9AF8013085F87030BAF8EE
:10575C000230A5F872309AF8043085F87130BAF836
:10576C000730A5F87430BAF80530D7F804D0A5F88E
:10577C0076305846FEF752FC214607F10C0241F2F6
:10578C000200FFF791FE0446002837D1D7F80CB081
:10579C00DBF80CA054468AB014F8013B02AA23494A
:1057AC00C2F81490C2E906131A4B1C491362A2F8F2
:1057BC0024801B4842F8101F4FF434510EF013FA9A
:1057CC00D7F804D00AF1410A20686168334603C354
:1057DC00083454451E46F7D15846FEF71FFC01F01D
:1057EC0031FA044650B995F87C30590622D4104A47
:1057FC000B4801210EF0E4F96FF0120420461C371F
:10580C00BD46BDE8F08F00BF338B010800000020BF
:10581C00C798010811860108C5930108050000010D
:10582C00B46D010878000020AF9801088E9801082B
:10583C00DA930108014607F10C0242F20300FFF76C
:10584C0033FE04460028D9D1D7F80CB0DBF80C3065
:10585C007B609A46E9468AB01AF8011B02AAC04836
:10586C00DFF80083C04EC2F81480C2E9060140F292
:10587C000243BE4993841662BD4842F8101F4FF490
:10588C0034510EF0B0F97B68DAF80410D3F801004B
:10589C00B84ACD4603C25846FEF7C0FB214607F175
:1058AC000C0242F20200FFF7FFFD04460028A5D1CE
:1058BC00D7F80CA0DAF80C408AB0237802AADFF8EB
:1058CC00B8B2AA49C2F81480C2E906B340F2024346
:1058DC0093841662A64842F8101F4FF434510EF010
:1058EC0082F9B4F8012093B2CD461BB3E17809B329
:1058FC00A5F804218AB0E17802AAA048C2E90713EE
:10590C000523C2E9050B4FF4245142F8103F984887
:10591C000EF069F9E378032BCD4606D003220092F2
:10592C009348974A02210DF08BFEE2789548114678
:10593C0010F0F4FA5046FEF771FB95F87C901F239B
:10594C0019F02009A5F820311AD14FF0FF304FF093
:10595C00FF31FFF77BFB044600284CD002210C30B2
:10596C000EF03BF80123037080F8019021464A4663
:10597C0040F66D40FFF798FD044600287FF43EAFDB
:10598C0095F89C301A072ED507F10C02002142F233
:10599C001C00FFF789FD044600287FF42FAFD7F8D1
:1059AC000C90D9F80CB05C46EA468AB014F8013B6E
:1059BC0002AA7549C2F81480C2E9061340F20243E8
:1059CC0093846A4B16626A4842F8103F4FF4345184
:1059DC000EF009F9DBF801206368D5464846C5E9A5
:1059EC003823FEF71BFB4FF0FF304FF0FF31FFF772
:1059FC002DFB044610B96FF06804FFE608210C304B
:105A0C000DF0EBFF95F8D83095F8D92013F0020F74
:105A1C0014BF2F230F2312F0090F18BF43F4006398
:105A2C00002203701B0A43708270C27002714271B3
:105A3C008271C271214642F20100FFF735FD044626
:105A4C0000287FF4DBAE95F87C30B5F804119B068A
:105A5C007BD4002946D107F10C0241F20500FFF777
:105A6C0023FD044600287FF4C9AEFC68D4F80CA0D2
:105A7C00E9468AB09AF8003002AAC2F81480DFF81E
:105A8C000C811662C2E9068340F202439384374BC1
:105A9C0042F8103F36484FF434510EF0A4F8B5F8E4
:105AAC000431CD46DBB9BAF80130A5F804318AB01F
:105ABC00BAF8045099B202AA354B2D48C2E9053800
:105ACC000523C2E9075142F8103F4FF424510EF060
